{
  "contractName": "Betting",
  "abi": [
    {
      "constant": true,
      "inputs": [
        {
          "name": "",
          "type": "address"
        }
      ],
      "name": "playerInfo",
      "outputs": [
        {
          "name": "amountBet",
          "type": "uint256"
        },
        {
          "name": "teamSelected",
          "type": "uint16"
        }
      ],
      "payable": false,
      "stateMutability": "view",
      "type": "function"
    },
    {
      "constant": true,
      "inputs": [],
      "name": "totalBetsTwo",
      "outputs": [
        {
          "name": "",
          "type": "uint256"
        }
      ],
      "payable": false,
      "stateMutability": "view",
      "type": "function"
    },
    {
      "constant": true,
      "inputs": [],
      "name": "totalBetsOne",
      "outputs": [
        {
          "name": "",
          "type": "uint256"
        }
      ],
      "payable": false,
      "stateMutability": "view",
      "type": "function"
    },
    {
      "constant": true,
      "inputs": [],
      "name": "owner",
      "outputs": [
        {
          "name": "",
          "type": "address"
        }
      ],
      "payable": false,
      "stateMutability": "view",
      "type": "function"
    },
    {
      "constant": true,
      "inputs": [],
      "name": "minimumBet",
      "outputs": [
        {
          "name": "",
          "type": "uint256"
        }
      ],
      "payable": false,
      "stateMutability": "view",
      "type": "function"
    },
    {
      "constant": true,
      "inputs": [
        {
          "name": "",
          "type": "uint256"
        }
      ],
      "name": "players",
      "outputs": [
        {
          "name": "",
          "type": "address"
        }
      ],
      "payable": false,
      "stateMutability": "view",
      "type": "function"
    },
    {
      "inputs": [],
      "payable": false,
      "stateMutability": "nonpayable",
      "type": "constructor"
    },
    {
      "payable": true,
      "stateMutability": "payable",
      "type": "fallback"
    },
    {
      "constant": false,
      "inputs": [],
      "name": "kill",
      "outputs": [],
      "payable": false,
      "stateMutability": "nonpayable",
      "type": "function"
    },
    {
      "constant": true,
      "inputs": [
        {
          "name": "player",
          "type": "address"
        }
      ],
      "name": "checkPlayerExists",
      "outputs": [
        {
          "name": "",
          "type": "bool"
        }
      ],
      "payable": false,
      "stateMutability": "view",
      "type": "function"
    },
    {
      "constant": false,
      "inputs": [
        {
          "name": "_teamSelected",
          "type": "uint8"
        }
      ],
      "name": "bet",
      "outputs": [],
      "payable": true,
      "stateMutability": "payable",
      "type": "function"
    },
    {
      "constant": false,
      "inputs": [
        {
          "name": "teamWinner",
          "type": "uint16"
        }
      ],
      "name": "distributePrizes",
      "outputs": [],
      "payable": false,
      "stateMutability": "nonpayable",
      "type": "function"
    },
    {
      "constant": true,
      "inputs": [],
      "name": "AmountOne",
      "outputs": [
        {
          "name": "",
          "type": "uint256"
        }
      ],
      "payable": false,
      "stateMutability": "view",
      "type": "function"
    },
    {
      "constant": true,
      "inputs": [],
      "name": "AmountTwo",
      "outputs": [
        {
          "name": "",
          "type": "uint256"
        }
      ],
      "payable": false,
      "stateMutability": "view",
      "type": "function"
    }
  ],
  "bytecode": "0x608060405234801561001057600080fd5b50336000806101000a81548173ffffffffffffffffffffffffffffffffffffffff021916908373ffffffffffffffffffffffffffffffffffffffff160217905550655af3107a4000600181905550610ad28061006d6000396000f3fe6080604052600436106100c4576000357c0100000000000000000000000000000000000000000000000000000000900480637904f688116100815780637904f6881461023b5780638afadeb51461027a5780638da5cb5b146102a5578063c38a8afd146102fc578063d0821b0e14610327578063f71d96cb14610358576100c4565b80634081d916146100c657806341c0e1b51461012f5780634996d51d146101465780634b114691146101715780635bf6b19f146101e55780636573359214610210575b005b3480156100d257600080fd5b50610115600480360360208110156100e957600080fd5b81019080803573ffffffffffffffffffffffffffffffffffffffff1690602001909291905050506103d3565b604051808215151515815260200191505060405180910390f35b34801561013b57600080fd5b50610144610475565b005b34801561015257600080fd5b5061015b610506565b6040518082815260200191505060405180910390f35b34801561017d57600080fd5b506101c06004803603602081101561019457600080fd5b81019080803573ffffffffffffffffffffffffffffffffffffffff169060200190929190505050610510565b604051808381526020018261ffff1661ffff1681526020019250505060405180910390f35b3480156101f157600080fd5b506101fa610542565b6040518082815260200191505060405180910390f35b34801561021c57600080fd5b50610225610548565b6040518082815260200191505060405180910390f35b34801561024757600080fd5b506102786004803603602081101561025e57600080fd5b81019080803561ffff169060200190929190505050610552565b005b34801561028657600080fd5b5061028f610860565b6040518082815260200191505060405180910390f35b3480156102b157600080fd5b506102ba610866565b604051808273ffffffffffffffffffffffffffffffffffffffff1673ffffffffffffffffffffffffffffffffffffffff16815260200191505060405180910390f35b34801561030857600080fd5b5061031161088b565b6040518082815260200191505060405180910390f35b6103566004803603602081101561033d57600080fd5b81019080803560ff169060200190929190505050610891565b005b34801561036457600080fd5b506103916004803603602081101561037b57600080fd5b81019080803590602001909291905050506109f5565b604051808273ffffffffffffffffffffffffffffffffffffffff1673ffffffffffffffffffffffffffffffffffffffff16815260200191505060405180910390f35b600080600090505b60048054905081101561046a578273ffffffffffffffffffffffffffffffffffffffff166004828154811061040c57fe5b9060005260206000200160009054906101000a900473ffffffffffffffffffffffffffffffffffffffff1673ffffffffffffffffffffffffffffffffffffffff16141561045d576001915050610470565b80806001019150506103db565b50600090505b919050565b6000809054906101000a900473ffffffffffffffffffffffffffffffffffffffff1673ffffffffffffffffffffffffffffffffffffffff163373ffffffffffffffffffffffffffffffffffffffff161415610504576000809054906101000a900473ffffffffffffffffffffffffffffffffffffffff1673ffffffffffffffffffffffffffffffffffffffff16ff5b565b6000600254905090565b60056020528060005260406000206000915090508060000154908060010160009054906101000a900461ffff16905082565b60035481565b6000600354905090565b61055a610a31565b600080905060008090506000809050600080600080600090505b600480549050811015610676576004818154811061058e57fe5b9060005260206000200160009054906101000a900473ffffffffffffffffffffffffffffffffffffffff1691508861ffff16600560008473ffffffffffffffffffffffffffffffffffffffff1673ffffffffffffffffffffffffffffffffffffffff16815260200190815260200160002060010160009054906101000a900461ffff1661ffff161415610669578188886103e8811061062957fe5b602002019073ffffffffffffffffffffffffffffffffffffffff16908173ffffffffffffffffffffffffffffffffffffffff168152505086806001019750505b8080600101915050610574565b5060018861ffff161415610693576003549450600254935061069e565b600254945060035493505b60008090505b868110156107ce57600073ffffffffffffffffffffffffffffffffffffffff1688826103e881106106d157fe5b602002015173ffffffffffffffffffffffffffffffffffffffff16146107065787816103e881106106fe57fe5b602002015193505b600560008573ffffffffffffffffffffffffffffffffffffffff1673ffffffffffffffffffffffffffffffffffffffff16815260200190815260200160002060000154925087816103e8811061075857fe5b602002015173ffffffffffffffffffffffffffffffffffffffff166108fc612710876127108a028161078657fe5b046127100186028161079457fe5b049081150290604051600060405180830381858888f193505050501580156107c0573d6000803e3d6000fd5b5080806001019150506106a4565b50600560008273ffffffffffffffffffffffffffffffffffffffff1673ffffffffffffffffffffffffffffffffffffffff1681526020019081526020016000206000808201600090556001820160006101000a81549061ffff02191690555050600060048161083d9190610a55565b506000945060009350600060028190555060006003819055505050505050505050565b60025481565b6000809054906101000a900473ffffffffffffffffffffffffffffffffffffffff1681565b60015481565b61089a336103d3565b156108a457600080fd5b6001543410156108b357600080fd5b34600560003373ffffffffffffffffffffffffffffffffffffffff1673ffffffffffffffffffffffffffffffffffffffff168152602001908152602001600020600001819055508060ff16600560003373ffffffffffffffffffffffffffffffffffffffff1673ffffffffffffffffffffffffffffffffffffffff16815260200190815260200160002060010160006101000a81548161ffff021916908361ffff16021790555060043390806001815401808255809150509060018203906000526020600020016000909192909190916101000a81548173ffffffffffffffffffffffffffffffffffffffff021916908373ffffffffffffffffffffffffffffffffffffffff1602179055505060018160ff1614156109e157346002600082825401925050819055506109f2565b346003600082825401925050819055505b50565b60048181548110610a0257fe5b906000526020600020016000915054906101000a900473ffffffffffffffffffffffffffffffffffffffff1681565b60405180617d0001604052806103e890602082028038833980820191505090505090565b815481835581811115610a7c57818360005260206000209182019101610a7b9190610a81565b5b505050565b610aa391905b80821115610a9f576000816000905550600101610a87565b5090565b9056fea165627a7a72305820bd3c906e9ee6e30bf1e7b251db1909c2c62c8b8b0ac60dcd50549477a71784b80029",
  "source": "pragma solidity ^0.5.1;\r\n\r\ncontract Betting {\r\n   address payable public owner;\r\n   uint256 public minimumBet;\r\n   uint256 public totalBetsOne;\r\n   uint256 public totalBetsTwo;\r\n   address payable[] public players;\r\n   struct Player {\r\n      uint256 amountBet;\r\n      uint16 teamSelected;\r\n    }\r\n// The address of the player and => the user info\r\n   mapping(address => Player) public playerInfo;\r\n   function() external payable {}\r\n\r\n  constructor() public {\r\n      owner = msg.sender;\r\n      minimumBet = 100000000000000;\r\n    }\r\nfunction kill() public {\r\n      if(msg.sender == owner) selfdestruct(owner);\r\n    }\r\n\r\nfunction checkPlayerExists(address payable player) public view returns(bool){\r\n      for(uint256 i = 0; i < players.length; i++){\r\n         if(players[i] == player) return true;\r\n      }\r\n      return false;\r\n    }\r\nfunction bet(uint8 _teamSelected) public payable {\r\n      //The first require is used to check if the player already exist\r\n      require(!checkPlayerExists(msg.sender));\r\n      //The second one is used to see if the value sended by the player is\r\n      //Higher than the minimum value\r\n      require(msg.value >= minimumBet);\r\n//We set the player informations : amount of the bet and selected team\r\n      playerInfo[msg.sender].amountBet = msg.value;\r\n      playerInfo[msg.sender].teamSelected = _teamSelected;\r\n//then we add the address of the player to the players array\r\n      players.push(msg.sender);\r\n//at the end, we increment the stakes of the team selected with the player bet\r\n      if ( _teamSelected == 1){\r\n          totalBetsOne += msg.value;\r\n      }\r\n      else{\r\n          totalBetsTwo += msg.value;\r\n      }\r\n    }\r\n    // Generates a number between 1 and 10 that will be the winner\r\n    function distributePrizes(uint16 teamWinner) public {\r\n      address payable[1000] memory winners;\r\n      //We have to create a temporary in memory array with fixed size\r\n      //Let's choose 1000\r\n      uint256 count = 0; // This is the count for the array of winners\r\n      uint256 LoserBet = 0; //This will take the value of all losers bet\r\n      uint256 WinnerBet = 0; //This will take the value of all winners bet\r\n      address add;\r\n      uint256 bet;\r\n      address payable playerAddress;\r\n//We loop through the player array to check who selected the winner team\r\n      for(uint256 i = 0; i < players.length; i++){\r\n         playerAddress = players[i];\r\n//If the player selected the winner team\r\n         //We add his address to the winners array\r\n         if(playerInfo[playerAddress].teamSelected == teamWinner){\r\n            winners[count] = playerAddress;\r\n            count++;\r\n         }\r\n      }\r\n//We define which bet sum is the Loser one and which one is the winner\r\n      if ( teamWinner == 1){\r\n         LoserBet = totalBetsTwo;\r\n         WinnerBet = totalBetsOne;\r\n      }\r\n      else{\r\n          LoserBet = totalBetsOne;\r\n          WinnerBet = totalBetsTwo;\r\n      }\r\n//We loop through the array of winners, to give ethers to the winners\r\n      for(uint256 j = 0; j < count; j++){\r\n          // Check that the address in this fixed array is not empty\r\n         if(winners[j] != address(0))\r\n            add = winners[j];\r\n            bet = playerInfo[add].amountBet;\r\n            //Transfer the money to the user\r\n            winners[j].transfer(    (bet*(10000+(LoserBet*10000/WinnerBet)))/10000 );\r\n      }\r\n\r\n      delete playerInfo[playerAddress]; // Delete all the players\r\n      players.length = 0; // Delete all the players array\r\n      LoserBet = 0; //reinitialize the bets\r\n      WinnerBet = 0;\r\n      totalBetsOne = 0;\r\n      totalBetsTwo = 0;\r\n    }\r\nfunction AmountOne() public view returns(uint256){\r\n       return totalBetsOne;\r\n    }\r\nfunction AmountTwo() public view returns(uint256){\r\n       return totalBetsTwo;\r\n    }\r\n}\r\n\r\n",
  "sourcePath": "C:/Users/Marien/Documents/GitHub/projectD/project-d/contracts/RouletteContract.sol",
  "compiler": {
    "name": "solc",
    "version": "0.5.7+commit.6da8b019.Emscripten.clang"
  },
  "schemaVersion": "3.0.6",
  "updatedAt": "2019-06-06T10:18:35.593Z",
  "devdoc": {
    "methods": {}
  },
  "userdoc": {
    "methods": {}
  }
}