{
  "contractName": "RouletteContract",
  "abi": [
    {
      "constant": true,
      "inputs": [
        {
          "name": "",
          "type": "address"
        }
      ],
      "name": "playerBet",
      "outputs": [
        {
          "name": "",
          "type": "uint256"
        }
      ],
      "payable": false,
      "stateMutability": "view",
      "type": "function"
    },
    {
      "constant": true,
      "inputs": [],
      "name": "totalBetValue",
      "outputs": [
        {
          "name": "",
          "type": "uint256"
        }
      ],
      "payable": false,
      "stateMutability": "view",
      "type": "function"
    },
    {
      "constant": true,
      "inputs": [],
      "name": "owner",
      "outputs": [
        {
          "name": "",
          "type": "address"
        }
      ],
      "payable": false,
      "stateMutability": "view",
      "type": "function"
    },
    {
      "constant": true,
      "inputs": [
        {
          "name": "",
          "type": "uint256"
        }
      ],
      "name": "players",
      "outputs": [
        {
          "name": "",
          "type": "address"
        }
      ],
      "payable": false,
      "stateMutability": "view",
      "type": "function"
    },
    {
      "inputs": [],
      "payable": true,
      "stateMutability": "payable",
      "type": "constructor"
    },
    {
      "constant": false,
      "inputs": [],
      "name": "addPlayer",
      "outputs": [],
      "payable": true,
      "stateMutability": "payable",
      "type": "function"
    },
    {
      "constant": false,
      "inputs": [],
      "name": "win",
      "outputs": [],
      "payable": false,
      "stateMutability": "nonpayable",
      "type": "function"
    }
  ],
  "bytecode": "0x608060405260086040519080825280602002602001820160405280156100345781602001602082028038833980820191505090505b506000908051906020019061004a929190610150565b50600060025533600160006101000a81548173ffffffffffffffffffffffffffffffffffffffff021916908373ffffffffffffffffffffffffffffffffffffffff16021790555060003390806001815401808255809150509060018203906000526020600020016000909192909190916101000a81548173ffffffffffffffffffffffffffffffffffffffff021916908373ffffffffffffffffffffffffffffffffffffffff160217905550503460026000828254019250508190555034600360003373ffffffffffffffffffffffffffffffffffffffff1673ffffffffffffffffffffffffffffffffffffffff1681526020019081526020016000208190555061021d565b8280548282559060005260206000209081019282156101c9579160200282015b828111156101c85782518260006101000a81548173ffffffffffffffffffffffffffffffffffffffff021916908373ffffffffffffffffffffffffffffffffffffffff16021790555091602001919060010190610170565b5b5090506101d691906101da565b5090565b61021a91905b8082111561021657600081816101000a81549073ffffffffffffffffffffffffffffffffffffffff0219169055506001016101e0565b5090565b90565b6103ad8061022c6000396000f3fe608060405260043610610072576000357c01000000000000000000000000000000000000000000000000000000009004806327b5db8a146100775780634251ea3c14610081578063473ca96c146100e65780634ce01d86146100fd5780638da5cb5b14610128578063f71d96cb1461017f575b600080fd5b61007f6101fa565b005b34801561008d57600080fd5b506100d0600480360360208110156100a457600080fd5b81019080803573ffffffffffffffffffffffffffffffffffffffff1690602001909291905050506102b6565b6040518082815260200191505060405180910390f35b3480156100f257600080fd5b506100fb6102ce565b005b34801561010957600080fd5b50610112610319565b6040518082815260200191505060405180910390f35b34801561013457600080fd5b5061013d61031f565b604051808273ffffffffffffffffffffffffffffffffffffffff1673ffffffffffffffffffffffffffffffffffffffff16815260200191505060405180910390f35b34801561018b57600080fd5b506101b8600480360360208110156101a257600080fd5b8101908080359060200190929190505050610345565b604051808273ffffffffffffffffffffffffffffffffffffffff1673ffffffffffffffffffffffffffffffffffffffff16815260200191505060405180910390f35b60003390806001815401808255809150509060018203906000526020600020016000909192909190916101000a81548173ffffffffffffffffffffffffffffffffffffffff021916908373ffffffffffffffffffffffffffffffffffffffff1602179055505034600360003373ffffffffffffffffffffffffffffffffffffffff1673ffffffffffffffffffffffffffffffffffffffff1681526020019081526020016000208190555034600260008282540192505081905550565b60036020528060005260406000206000915090505481565b3373ffffffffffffffffffffffffffffffffffffffff166108fc6002549081150290604051600060405180830381858888f19350505050158015610316573d6000803e3d6000fd5b50565b60025481565b600160009054906101000a900473ffffffffffffffffffffffffffffffffffffffff1681565b6000818154811061035257fe5b906000526020600020016000915054906101000a900473ffffffffffffffffffffffffffffffffffffffff168156fea165627a7a72305820f96197ad00f972ea74b89b20fafdbe2f914c5cebe60c6e3ff1aed90f28d4c6c50029",
  "source": "pragma solidity ^0.5.7;\r\n\r\ncontract RouletteContract {\r\n    address[] public players = new address[](8);\r\n    address public owner;\r\n    uint256 public totalBetValue = 0;\r\n\r\n    mapping(address => uint256) public playerBet;\r\n\r\n    constructor() public payable {\r\n        owner = msg.sender;\r\n        players.push(msg.sender);\r\n        totalBetValue += msg.value;\r\n        playerBet[msg.sender] = msg.value;\r\n    }\r\n\r\n    function addPlayer() public payable {\r\n        players.push(msg.sender);\r\n        playerBet[msg.sender] = msg.value;\r\n        totalBetValue += msg.value;\r\n    }\r\n\r\n    function win() public {\r\n        msg.sender.transfer(totalBetValue);\r\n    }\r\n}",
  "sourcePath": "C:/Users/Okan Emeni/Documents/Projects/eth-react/contracts/RouletteContract.sol",
  "compiler": {
    "name": "solc",
    "version": "0.5.7+commit.6da8b019.Emscripten.clang"
  },
  "schemaVersion": "3.0.8",
  "updatedAt": "2019-04-24T21:09:05.809Z",
  "devdoc": {
    "methods": {}
  },
  "userdoc": {
    "methods": {}
  }
}