{
  "contractName": "RouletteContract",
  "abi": [
    {
      "constant": true,
      "inputs": [
        {
          "name": "",
          "type": "address"
        }
      ],
      "name": "playerBet",
      "outputs": [
        {
          "name": "",
          "type": "uint256"
        }
      ],
      "payable": false,
      "stateMutability": "view",
      "type": "function",
      "signature": "0x4251ea3c"
    },
    {
      "constant": true,
      "inputs": [],
      "name": "totalBetValue",
      "outputs": [
        {
          "name": "",
          "type": "uint256"
        }
      ],
      "payable": false,
      "stateMutability": "view",
      "type": "function",
      "signature": "0x4ce01d86"
    },
    {
      "constant": true,
      "inputs": [],
      "name": "owner",
      "outputs": [
        {
          "name": "",
          "type": "address"
        }
      ],
      "payable": false,
      "stateMutability": "view",
      "type": "function",
      "signature": "0x8da5cb5b"
    },
    {
      "constant": true,
      "inputs": [
        {
          "name": "",
          "type": "uint256"
        }
      ],
      "name": "players",
      "outputs": [
        {
          "name": "",
          "type": "address"
        }
      ],
      "payable": false,
      "stateMutability": "view",
      "type": "function",
      "signature": "0xf71d96cb"
    },
    {
      "inputs": [],
      "payable": true,
      "stateMutability": "payable",
      "type": "constructor",
      "signature": "constructor"
    },
    {
      "constant": false,
      "inputs": [],
      "name": "addPlayer",
      "outputs": [],
      "payable": true,
      "stateMutability": "payable",
      "type": "function",
      "signature": "0x27b5db8a"
    },
    {
      "constant": false,
      "inputs": [],
      "name": "win",
      "outputs": [],
      "payable": false,
      "stateMutability": "nonpayable",
      "type": "function",
      "signature": "0x473ca96c"
    },
    {
      "constant": true,
      "inputs": [],
      "name": "getPlayers",
      "outputs": [
        {
          "name": "players",
          "type": "address[]"
        }
      ],
      "payable": false,
      "stateMutability": "view",
      "type": "function",
      "signature": "0x8b5b9ccc"
    },
    {
      "constant": true,
      "inputs": [],
      "name": "getTotalBetValue",
      "outputs": [
        {
          "name": "totalBetValue",
          "type": "uint256"
        }
      ],
      "payable": false,
      "stateMutability": "view",
      "type": "function",
      "signature": "0x411ccaec"
    }
  ],
  "bytecode": "0x608060405260086040519080825280602002602001820160405280156100345781602001602082028038833980820191505090505b506000908051906020019061004a929190610150565b50600060025533600160006101000a81548173ffffffffffffffffffffffffffffffffffffffff021916908373ffffffffffffffffffffffffffffffffffffffff16021790555060003390806001815401808255809150509060018203906000526020600020016000909192909190916101000a81548173ffffffffffffffffffffffffffffffffffffffff021916908373ffffffffffffffffffffffffffffffffffffffff160217905550503460026000828254019250508190555034600360003373ffffffffffffffffffffffffffffffffffffffff1673ffffffffffffffffffffffffffffffffffffffff1681526020019081526020016000208190555061021d565b8280548282559060005260206000209081019282156101c9579160200282015b828111156101c85782518260006101000a81548173ffffffffffffffffffffffffffffffffffffffff021916908373ffffffffffffffffffffffffffffffffffffffff16021790555091602001919060010190610170565b5b5090506101d691906101da565b5090565b61021a91905b8082111561021657600081816101000a81549073ffffffffffffffffffffffffffffffffffffffff0219169055506001016101e0565b5090565b90565b61047a8061022c6000396000f3fe608060405260043610610098576000357c0100000000000000000000000000000000000000000000000000000000900480634ce01d861161006b5780634ce01d861461014e5780638b5b9ccc146101795780638da5cb5b146101e5578063f71d96cb1461023c57610098565b806327b5db8a1461009d578063411ccaec146100a75780634251ea3c146100d2578063473ca96c14610137575b600080fd5b6100a56102b7565b005b3480156100b357600080fd5b506100bc610373565b6040518082815260200191505060405180910390f35b3480156100de57600080fd5b50610121600480360360208110156100f557600080fd5b81019080803573ffffffffffffffffffffffffffffffffffffffff16906020019092919050505061037b565b6040518082815260200191505060405180910390f35b34801561014357600080fd5b5061014c610393565b005b34801561015a57600080fd5b506101636103de565b6040518082815260200191505060405180910390f35b34801561018557600080fd5b5061018e6103e4565b6040518080602001828103825283818151815260200191508051906020019060200280838360005b838110156101d15780820151818401526020810190506101b6565b505050509050019250505060405180910390f35b3480156101f157600080fd5b506101fa6103ec565b604051808273ffffffffffffffffffffffffffffffffffffffff1673ffffffffffffffffffffffffffffffffffffffff16815260200191505060405180910390f35b34801561024857600080fd5b506102756004803603602081101561025f57600080fd5b8101908080359060200190929190505050610412565b604051808273ffffffffffffffffffffffffffffffffffffffff1673ffffffffffffffffffffffffffffffffffffffff16815260200191505060405180910390f35b60003390806001815401808255809150509060018203906000526020600020016000909192909190916101000a81548173ffffffffffffffffffffffffffffffffffffffff021916908373ffffffffffffffffffffffffffffffffffffffff1602179055505034600360003373ffffffffffffffffffffffffffffffffffffffff1673ffffffffffffffffffffffffffffffffffffffff1681526020019081526020016000208190555034600260008282540192505081905550565b600080905090565b60036020528060005260406000206000915090505481565b3373ffffffffffffffffffffffffffffffffffffffff166108fc6002549081150290604051600060405180830381858888f193505050501580156103db573d6000803e3d6000fd5b50565b60025481565b606080905090565b600160009054906101000a900473ffffffffffffffffffffffffffffffffffffffff1681565b6000818154811061041f57fe5b906000526020600020016000915054906101000a900473ffffffffffffffffffffffffffffffffffffffff168156fea165627a7a723058205c14417d20694579a96c2d082547f4959e3d21ed22f9df83a49162ae9ff822750029",
  "source": "pragma solidity ^0.5.7;\r\n\r\ncontract RouletteContract {\r\n    address[] public players = new address[](8);\r\n    address public owner;\r\n    uint256 public totalBetValue = 0;\r\n\r\n    mapping(address => uint256) public playerBet;\r\n\r\n    constructor() public payable {\r\n        owner = msg.sender;\r\n        players.push(msg.sender);\r\n        totalBetValue += msg.value;\r\n        playerBet[msg.sender] = msg.value;\r\n    }\r\n\r\n    function addPlayer() public payable {\r\n        players.push(msg.sender);\r\n        playerBet[msg.sender] = msg.value;\r\n        totalBetValue += msg.value;\r\n    }\r\n\r\n    function win() public {\r\n        msg.sender.transfer(totalBetValue);\r\n    }\r\n    \r\n    function getPlayers() public view returns (address[] memory players) {\r\n        return players;\r\n    }\r\n    \r\n    function getTotalBetValue() public view returns (uint256 totalBetValue) {\r\n        return totalBetValue;\r\n    }\r\n}",
  "sourcePath": "C:/Users/Okan Emeni/Documents/Projects/eth-react/contracts/RouletteContract.sol",
  "compiler": {
    "name": "solc",
    "version": "0.5.7+commit.6da8b019.Emscripten.clang"
  },
  "schemaVersion": "3.0.8",
  "updatedAt": "2019-04-26T13:59:06.497Z",
  "devdoc": {
    "methods": {}
  },
  "userdoc": {
    "methods": {}
  }
}