{
  "contractName": "RouletteContract",
  "abi": [
    {
      "constant": true,
      "inputs": [
        {
          "name": "",
          "type": "uint256"
        }
      ],
      "name": "homeTeamPlayers",
      "outputs": [
        {
          "name": "",
          "type": "address"
        }
      ],
      "payable": false,
      "stateMutability": "view",
      "type": "function"
    },
    {
      "constant": true,
      "inputs": [
        {
          "name": "",
          "type": "address"
        }
      ],
      "name": "playerBet",
      "outputs": [
        {
          "name": "amountBet",
          "type": "uint256"
        },
        {
          "name": "teamSelected",
          "type": "uint256"
        },
        {
          "name": "hasClaimedReward",
          "type": "bool"
        }
      ],
      "payable": false,
      "stateMutability": "view",
      "type": "function"
    },
    {
      "constant": true,
      "inputs": [
        {
          "name": "",
          "type": "uint256"
        }
      ],
      "name": "players",
      "outputs": [
        {
          "name": "",
          "type": "address"
        }
      ],
      "payable": false,
      "stateMutability": "view",
      "type": "function"
    },
    {
      "constant": true,
      "inputs": [
        {
          "name": "",
          "type": "uint256"
        }
      ],
      "name": "awayTeamPlayers",
      "outputs": [
        {
          "name": "",
          "type": "address"
        }
      ],
      "payable": false,
      "stateMutability": "view",
      "type": "function"
    },
    {
      "inputs": [
        {
          "name": "_teamSelected",
          "type": "uint256"
        }
      ],
      "payable": true,
      "stateMutability": "payable",
      "type": "constructor"
    },
    {
      "constant": false,
      "inputs": [
        {
          "name": "_teamSelected",
          "type": "uint256"
        }
      ],
      "name": "bet",
      "outputs": [],
      "payable": true,
      "stateMutability": "payable",
      "type": "function"
    },
    {
      "constant": false,
      "inputs": [
        {
          "name": "winningTeam",
          "type": "uint256"
        }
      ],
      "name": "getReward",
      "outputs": [],
      "payable": true,
      "stateMutability": "payable",
      "type": "function"
    },
    {
      "constant": true,
      "inputs": [],
      "name": "getPlayers",
      "outputs": [
        {
          "name": "playersArray",
          "type": "address[]"
        }
      ],
      "payable": false,
      "stateMutability": "view",
      "type": "function"
    },
    {
      "constant": true,
      "inputs": [],
      "name": "getTotalBetValue",
      "outputs": [
        {
          "name": "betValue",
          "type": "uint256"
        }
      ],
      "payable": false,
      "stateMutability": "view",
      "type": "function"
    },
    {
      "constant": true,
      "inputs": [
        {
          "name": "playerAddress",
          "type": "address"
        }
      ],
      "name": "getPlayerBet",
      "outputs": [
        {
          "name": "betValue",
          "type": "uint256"
        }
      ],
      "payable": false,
      "stateMutability": "view",
      "type": "function"
    },
    {
      "constant": true,
      "inputs": [],
      "name": "getHomeTeamPlayers",
      "outputs": [
        {
          "name": "homeTeamPlayersArray",
          "type": "address[]"
        }
      ],
      "payable": false,
      "stateMutability": "view",
      "type": "function"
    },
    {
      "constant": true,
      "inputs": [],
      "name": "getAwayTeamPlayers",
      "outputs": [
        {
          "name": "awayTeamPlayersArray",
          "type": "address[]"
        }
      ],
      "payable": false,
      "stateMutability": "view",
      "type": "function"
    },
    {
      "constant": true,
      "inputs": [],
      "name": "checkIfPlayerAlreadyClaimedReward",
      "outputs": [
        {
          "name": "hasClaimed",
          "type": "bool"
        }
      ],
      "payable": false,
      "stateMutability": "view",
      "type": "function"
    }
  ],
  "bytecode": "0x6080604052604051602080610ecf8339810180604052602081101561002357600080fd5b810190808051906020019092919050505034600660003373ffffffffffffffffffffffffffffffffffffffff1673ffffffffffffffffffffffffffffffffffffffff1681526020019081526020016000206000018190555080600660003373ffffffffffffffffffffffffffffffffffffffff1673ffffffffffffffffffffffffffffffffffffffff168152602001908152602001600020600101819055506000600660003373ffffffffffffffffffffffffffffffffffffffff1673ffffffffffffffffffffffffffffffffffffffff16815260200190815260200160002060020160006101000a81548160ff02191690831515021790555060003390806001815401808255809150509060018203906000526020600020016000909192909190916101000a81548173ffffffffffffffffffffffffffffffffffffffff021916908373ffffffffffffffffffffffffffffffffffffffff160217905550506000811415610207573460046000828254019250508190555060013390806001815401808255809150509060018203906000526020600020016000909192909190916101000a81548173ffffffffffffffffffffffffffffffffffffffff021916908373ffffffffffffffffffffffffffffffffffffffff1602179055505061027e565b3460056000828254019250508190555060023390806001815401808255809150509060018203906000526020600020016000909192909190916101000a81548173ffffffffffffffffffffffffffffffffffffffff021916908373ffffffffffffffffffffffffffffffffffffffff160217905550505b3460036000828254019250508190555050610c318061029e6000396000f3fe6080604052600436106100a75760003560e01c80637365870b116100645780637365870b146102925780637e9bbb97146102c05780638b5b9ccc1461032c578063c137d64314610398578063f71d96cb146103fd578063fd08560f14610478576100a7565b80630553ee0b146100ac5780630decca44146100db5780631c4b774b14610156578063411ccaec146101845780634251ea3c146101af5780636e93244914610226575b600080fd5b3480156100b857600080fd5b506100c16104f3565b604051808215151515815260200191505060405180910390f35b3480156100e757600080fd5b50610114600480360360208110156100fe57600080fd5b810190808035906020019092919050505061054a565b604051808273ffffffffffffffffffffffffffffffffffffffff1673ffffffffffffffffffffffffffffffffffffffff16815260200191505060405180910390f35b6101826004803603602081101561016c57600080fd5b8101908080359060200190929190505050610586565b005b34801561019057600080fd5b506101996106f5565b6040518082815260200191505060405180910390f35b3480156101bb57600080fd5b506101fe600480360360208110156101d257600080fd5b81019080803573ffffffffffffffffffffffffffffffffffffffff169060200190929190505050610703565b6040518084815260200183815260200182151515158152602001935050505060405180910390f35b34801561023257600080fd5b5061023b61073a565b6040518080602001828103825283818151815260200191508051906020019060200280838360005b8381101561027e578082015181840152602081019050610263565b505050509050019250505060405180910390f35b6102be600480360360208110156102a857600080fd5b81019080803590602001909291905050506107c8565b005b3480156102cc57600080fd5b506102d5610a25565b6040518080602001828103825283818151815260200191508051906020019060200280838360005b838110156103185780820151818401526020810190506102fd565b505050509050019250505060405180910390f35b34801561033857600080fd5b50610341610ab3565b6040518080602001828103825283818151815260200191508051906020019060200280838360005b83811015610384578082015181840152602081019050610369565b505050509050019250505060405180910390f35b3480156103a457600080fd5b506103e7600480360360208110156103bb57600080fd5b81019080803573ffffffffffffffffffffffffffffffffffffffff169060200190929190505050610b41565b6040518082815260200191505060405180910390f35b34801561040957600080fd5b506104366004803603602081101561042057600080fd5b8101908080359060200190929190505050610b8d565b604051808273ffffffffffffffffffffffffffffffffffffffff1673ffffffffffffffffffffffffffffffffffffffff16815260200191505060405180910390f35b34801561048457600080fd5b506104b16004803603602081101561049b57600080fd5b8101908080359060200190929190505050610bc9565b604051808273ffffffffffffffffffffffffffffffffffffffff1673ffffffffffffffffffffffffffffffffffffffff16815260200191505060405180910390f35b6000600660003373ffffffffffffffffffffffffffffffffffffffff1673ffffffffffffffffffffffffffffffffffffffff16815260200190815260200160002060020160009054906101000a900460ff16905090565b6001818154811061055757fe5b906000526020600020016000915054906101000a900473ffffffffffffffffffffffffffffffffffffffff1681565b80600660003373ffffffffffffffffffffffffffffffffffffffff1673ffffffffffffffffffffffffffffffffffffffff16815260200190815260200160002060010154146105d4576106f2565b6000808214156105f657600180549050600554816105ee57fe5b04905061060a565b6002805490506004548161060657fe5b0490505b6001600660003373ffffffffffffffffffffffffffffffffffffffff1673ffffffffffffffffffffffffffffffffffffffff16815260200190815260200160002060020160006101000a81548160ff0219169083151502179055503373ffffffffffffffffffffffffffffffffffffffff166108fc82600660003373ffffffffffffffffffffffffffffffffffffffff1673ffffffffffffffffffffffffffffffffffffffff16815260200190815260200160002060000154019081150290604051600060405180830381858888f193505050501580156106ef573d6000803e3d6000fd5b50505b50565b600060055460045401905090565b60066020528060005260406000206000915090508060000154908060010154908060020160009054906101000a900460ff16905083565b606060018054806020026020016040519081016040528092919081815260200182805480156107be57602002820191906000526020600020905b8160009054906101000a900473ffffffffffffffffffffffffffffffffffffffff1673ffffffffffffffffffffffffffffffffffffffff1681526020019060010190808311610774575b5050505050905090565b34600660003373ffffffffffffffffffffffffffffffffffffffff1673ffffffffffffffffffffffffffffffffffffffff1681526020019081526020016000206000018190555080600660003373ffffffffffffffffffffffffffffffffffffffff1673ffffffffffffffffffffffffffffffffffffffff168152602001908152602001600020600101819055506000600660003373ffffffffffffffffffffffffffffffffffffffff1673ffffffffffffffffffffffffffffffffffffffff16815260200190815260200160002060020160006101000a81548160ff02191690831515021790555060003390806001815401808255809150509060018203906000526020600020016000909192909190916101000a81548173ffffffffffffffffffffffffffffffffffffffff021916908373ffffffffffffffffffffffffffffffffffffffff16021790555050600081141561099b573460046000828254019250508190555060013390806001815401808255809150509060018203906000526020600020016000909192909190916101000a81548173ffffffffffffffffffffffffffffffffffffffff021916908373ffffffffffffffffffffffffffffffffffffffff16021790555050610a12565b3460056000828254019250508190555060023390806001815401808255809150509060018203906000526020600020016000909192909190916101000a81548173ffffffffffffffffffffffffffffffffffffffff021916908373ffffffffffffffffffffffffffffffffffffffff160217905550505b3460036000828254019250508190555050565b60606002805480602002602001604051908101604052809291908181526020018280548015610aa957602002820191906000526020600020905b8160009054906101000a900473ffffffffffffffffffffffffffffffffffffffff1673ffffffffffffffffffffffffffffffffffffffff1681526020019060010190808311610a5f575b5050505050905090565b60606000805480602002602001604051908101604052809291908181526020018280548015610b3757602002820191906000526020600020905b8160009054906101000a900473ffffffffffffffffffffffffffffffffffffffff1673ffffffffffffffffffffffffffffffffffffffff1681526020019060010190808311610aed575b5050505050905090565b6000600660008373ffffffffffffffffffffffffffffffffffffffff1673ffffffffffffffffffffffffffffffffffffffff168152602001908152602001600020600001549050919050565b60008181548110610b9a57fe5b906000526020600020016000915054906101000a900473ffffffffffffffffffffffffffffffffffffffff1681565b60028181548110610bd657fe5b906000526020600020016000915054906101000a900473ffffffffffffffffffffffffffffffffffffffff168156fea165627a7a72305820443304fceede4b71e39f1ffdb3ab47170d15c284c31ae6991c1c0f223acbacf90029",
  "source": "pragma solidity ^0.5.1;\n\ncontract RouletteContract {\n    address payable[] public players;\n    address payable[] public homeTeamPlayers;\n    address payable[] public awayTeamPlayers;\n    uint256 totalBetValue;\n    uint256 homeTeamamount;\n    uint256 awayTeamamount;\n    struct Player {\n        uint256 amountBet;\n        uint256 teamSelected;\n        bool hasClaimedReward;\n    }\n\n    constructor(uint256 _teamSelected) public payable {\n        playerBet[msg.sender].amountBet = msg.value;\n        playerBet[msg.sender].teamSelected = _teamSelected;\n        playerBet[msg.sender].hasClaimedReward = false;\n        players.push(msg.sender);\n\n        if (_teamSelected == 0)\n        {\n            homeTeamamount += msg.value;\n            homeTeamPlayers.push(msg.sender);\n        }\n        else\n        {\n            awayTeamamount += msg.value;\n            awayTeamPlayers.push(msg.sender);\n        }\n\n        totalBetValue += msg.value;\n    }\n\n    mapping(address => Player) public playerBet;\n\n\n    function bet(uint256 _teamSelected) public payable {\n        playerBet[msg.sender].amountBet = msg.value;\n        playerBet[msg.sender].teamSelected = _teamSelected;\n        playerBet[msg.sender].hasClaimedReward = false;\n        players.push(msg.sender);\n\n        if (_teamSelected == 0)\n        {\n            homeTeamamount += msg.value;\n            homeTeamPlayers.push(msg.sender);\n        }\n        else\n        {\n            awayTeamamount += msg.value;\n            awayTeamPlayers.push(msg.sender);\n        }\n        totalBetValue += msg.value;\n\n    }\n\n    function getReward(uint256 winningTeam) public payable {\n\n        if (playerBet[msg.sender].teamSelected != winningTeam) return;\n\n        uint256 bonusEther;\n\n        if (winningTeam == 0) {\n            bonusEther = awayTeamamount / homeTeamPlayers.length;\n        } else {\n            bonusEther = homeTeamamount / awayTeamPlayers.length;\n        }\n\n        playerBet[msg.sender].hasClaimedReward = true;\n        msg.sender.transfer(playerBet[msg.sender].amountBet + bonusEther);\n\n    }\n\n    function getPlayers() public view returns (address payable[] memory playersArray) {\n        return players;\n    }\n\n    function getTotalBetValue() public view returns (uint256 betValue) {\n        return homeTeamamount + awayTeamamount;\n    }\n\n    function getPlayerBet(address playerAddress) public view returns (uint256 betValue) {\n        return playerBet[playerAddress].amountBet;\n    }\n\n    function getHomeTeamPlayers() public view returns (address payable[] memory homeTeamPlayersArray) {\n        return homeTeamPlayers;\n    }\n\n    function getAwayTeamPlayers() public view returns (address payable[] memory awayTeamPlayersArray) {\n        return awayTeamPlayers;\n    }\n\n    function checkIfPlayerAlreadyClaimedReward() public view returns (bool hasClaimed) {\n        return playerBet[msg.sender].hasClaimedReward;\n    }\n}\n",
  "sourcePath": "/home/okan/WebstormProjects/project-d/contracts/RouletteContract.sol",
  "compiler": {
    "name": "solc",
    "version": "0.5.7+commit.6da8b019.Emscripten.clang"
  },
  "schemaVersion": "3.0.9",
  "updatedAt": "2019-06-08T15:00:08.613Z",
  "devdoc": {
    "methods": {}
  },
  "userdoc": {
    "methods": {}
  }
}