{
  "contractName": "RouletteContract",
  "abi": [
    {
      "constant": true,
      "inputs": [
        {
          "name": "",
          "type": "address"
        }
      ],
      "name": "playerBet",
      "outputs": [
        {
          "name": "amountBet",
          "type": "uint256"
        },
        {
          "name": "teamSelected",
          "type": "uint256"
        }
      ],
      "payable": false,
      "stateMutability": "view",
      "type": "function"
    },
    {
      "constant": true,
      "inputs": [
        {
          "name": "",
          "type": "uint256"
        }
      ],
      "name": "players",
      "outputs": [
        {
          "name": "",
          "type": "address"
        }
      ],
      "payable": false,
      "stateMutability": "view",
      "type": "function"
    },
    {
      "constant": true,
      "inputs": [
        {
          "name": "_teamSelected",
          "type": "uint256"
        }
      ],
      "name": "homeTeam",
      "outputs": [
        {
          "name": "",
          "type": "address"
        }
      ],
      "payable": true,
      "stateMutability": "payable",
      "type": "constructor"
    },
    {
      "constant": false,
      "inputs": [
        {
          "name": "_teamSelected",
          "type": "uint256"
        }
      ],
      "name": "bet",
      "outputs": [
        {
          "name": "",
          "type": "address"
        }
      ],
      "payable": true,
      "stateMutability": "payable",
      "type": "function"
    },
    {
      "inputs": [
        {
          "name": "wonteam",
          "type": "uint256"
        }
      ],
      "payable": false,
      "stateMutability": "nonpayable",
      "type": "function",
      "constant": false,
      "name": "win",
      "outputs": [
        {
          "name": "",
          "type": "uint256"
        }
      ]
    },
    {
      "constant": true,
      "inputs": [
        {
          "name": "",
          "type": "uint256"
        }
      ],
      "name": "getPlayers",
      "outputs": [
        {
          "name": "playersArray",
          "type": "address[]"
        }
      ],
      "payable": false,
      "stateMutability": "view",
      "type": "function"
    },
    {
      "constant": true,
      "inputs": [
        {
          "name": "team",
          "type": "uint256"
        }
      ],
      "name": "getTotalBetValue",
      "outputs": [
        {
          "name": "betValue",
          "type": "uint256"
        }
      ],
      "payable": false,
      "stateMutability": "view",
      "type": "function"
    },
    {
      "constant": true,
      "inputs": [
        {
          "name": "playerAddress",
          "type": "address"
        }
      ],
      "name": "getPlayerBet",
      "outputs": [
        {
          "name": "betValue",
          "type": "uint256"
        }
      ],
      "payable": false,
      "stateMutability": "view",
      "type": "function"
    },
    {
      "constant": false,
      "inputs": [
        {
          "name": "team",
          "type": "uint256"
        }
      ],
      "name": "win",
      "outputs": [
        {
          "name": "playersArray",
          "type": "address[]"
        }
      ],
      "payable": false,
      "stateMutability": "nonpayable",
      "type": "function"
    },
    {
      "constant": true,
      "inputs": [
        {
          "name": "playerAddress",
          "type": "address"
        }
      ],
      "name": "getPlayers",
      "outputs": [
        {
          "name": "playersArray",
          "type": "address[]"
        }
      ],
      "payable": false,
      "stateMutability": "view",
      "type": "function"
    },
    {
      "constant": true,
      "inputs": [
        {
          "name": "playerAddress",
          "type": "address"
        }
      ],
      "name": "getTotalBetValue",
      "outputs": [
        {
          "name": "betValue",
          "type": "uint256"
        }
      ],
      "payable": false,
      "stateMutability": "view",
      "type": "function"
    },
    {
      "constant": true,
      "inputs": [
        {
          "name": "playerAddress",
          "type": "address"
        }
      ],
      "name": "getPlayerBet",
      "outputs": [
        {
          "name": "betValue",
          "type": "uint256"
        }
      ],
      "payable": false,
      "stateMutability": "view",
      "type": "function"
    },
    {
      "constant": true,
      "inputs": [
        {
          "name": "playerAddress",
          "type": "address"
        }
      ],
      "name": "getPlayerBet",
      "outputs": [
        {
          "name": "betValue",
          "type": "uint256"
        }
      ],
      "payable": false,
      "stateMutability": "view",
      "type": "function"
    }
  ],
  "bytecode": "0x60806040526040516020806109698339810180604052602081101561002357600080fd5b810190808051906020019092919050505034600460003373ffffffffffffffffffffffffffffffffffffffff1673ffffffffffffffffffffffffffffffffffffffff1681526020019081526020016000206000018190555080600460003373ffffffffffffffffffffffffffffffffffffffff1673ffffffffffffffffffffffffffffffffffffffff1681526020019081526020016000206001018190555060003390806001815401808255809150509060018203906000526020600020016000909192909190916101000a81548173ffffffffffffffffffffffffffffffffffffffff021916908373ffffffffffffffffffffffffffffffffffffffff1602179055505060008114156101465734600260008282540192505081905550610157565b346003600082825401925050819055505b50610802806101676000396000f3fe60806040526004361061008d576000357c0100000000000000000000000000000000000000000000000000000000900480637365870b1161006b5780637365870b146101645780638b5b9ccc14610192578063c137d643146101fe578063f71d96cb146102635761008d565b8063411ccaec146100925780634251ea3c146100bd5780635bc60cfc14610129575b600080fd5b34801561009e57600080fd5b506100a76102de565b6040518082815260200191505060405180910390f35b3480156100c957600080fd5b5061010c600480360360208110156100e057600080fd5b81019080803573ffffffffffffffffffffffffffffffffffffffff1690602001909291905050506102ec565b604051808381526020018281526020019250505060405180910390f35b34801561013557600080fd5b506101626004803603602081101561014c57600080fd5b8101908080359060200190929190505050610310565b005b6101906004803603602081101561017a57600080fd5b8101908080359060200190929190505050610576565b005b34801561019e57600080fd5b506101a761069c565b6040518080602001828103825283818151815260200191508051906020019060200280838360005b838110156101ea5780820151818401526020810190506101cf565b505050509050019250505060405180910390f35b34801561020a57600080fd5b5061024d6004803603602081101561022157600080fd5b81019080803573ffffffffffffffffffffffffffffffffffffffff16906020019092919050505061072a565b6040518082815260200191505060405180910390f35b34801561026f57600080fd5b5061029c6004803603602081101561028657600080fd5b8101908080359060200190929190505050610776565b604051808273ffffffffffffffffffffffffffffffffffffffff1673ffffffffffffffffffffffffffffffffffffffff16815260200191505060405180910390f35b600060035460025401905090565b60046020528060005260406000206000915090508060000154908060010154905082565b6103186107b2565b6000809050600080600080600080600090505b600080549050811015610417576000818154811061034557fe5b9060005260206000200160009054906101000a900473ffffffffffffffffffffffffffffffffffffffff169150600460003373ffffffffffffffffffffffffffffffffffffffff1673ffffffffffffffffffffffffffffffffffffffff1681526020019081526020016000206001015489141561040a578188886103e881106103ca57fe5b602002019073ffffffffffffffffffffffffffffffffffffffff16908173ffffffffffffffffffffffffffffffffffffffff168152505086806001019750505b808060010191505061032b565b506000881415610430576002549350600354945061043b565b600354935060025494505b60008090505b8681101561056b57600073ffffffffffffffffffffffffffffffffffffffff1688826103e8811061046e57fe5b602002015173ffffffffffffffffffffffffffffffffffffffff161461055e5787816103e8811061049b57fe5b60200201519250600460008473ffffffffffffffffffffffffffffffffffffffff1673ffffffffffffffffffffffffffffffffffffffff16815260200190815260200160002060000154935087816103e881106104f457fe5b602002015173ffffffffffffffffffffffffffffffffffffffff166108fc612710876127108a028161052257fe5b046127100187028161053057fe5b049081150290604051600060405180830381858888f1935050505015801561055c573d6000803e3d6000fd5b505b8080600101915050610441565b505050505050505050565b34600460003373ffffffffffffffffffffffffffffffffffffffff1673ffffffffffffffffffffffffffffffffffffffff1681526020019081526020016000206000018190555080600460003373ffffffffffffffffffffffffffffffffffffffff1673ffffffffffffffffffffffffffffffffffffffff1681526020019081526020016000206001018190555060003390806001815401808255809150509060018203906000526020600020016000909192909190916101000a81548173ffffffffffffffffffffffffffffffffffffffff021916908373ffffffffffffffffffffffffffffffffffffffff1602179055505060008114156106885734600260008282540192505081905550610699565b346003600082825401925050819055505b50565b6060600080548060200260200160405190810160405280929190818152602001828054801561072057602002820191906000526020600020905b8160009054906101000a900473ffffffffffffffffffffffffffffffffffffffff1673ffffffffffffffffffffffffffffffffffffffff16815260200190600101908083116106d6575b5050505050905090565b6000600460008373ffffffffffffffffffffffffffffffffffffffff1673ffffffffffffffffffffffffffffffffffffffff168152602001908152602001600020600001549050919050565b6000818154811061078357fe5b906000526020600020016000915054906101000a900473ffffffffffffffffffffffffffffffffffffffff1681565b60405180617d0001604052806103e89060208202803883398082019150509050509056fea165627a7a723058203ba3a4026913bb98a5731b67ab51bad64340d1d1c9cf0934058eff7997f27a890029",
  "source": "pragma solidity ^0.5.1;\r\n\r\ncontract RouletteContract {\r\n    address payable[] public players;\r\n    uint256 totalBetValue;\r\n    uint256 homeTeamamount;\r\n    uint256 awayTeamamount;\r\n    struct Player {\r\n        uint256 amountBet;\r\n        uint256 teamSelected;\r\n    }\r\n\r\n    constructor(uint256 _teamSelected) public payable {\r\n        playerBet[msg.sender].amountBet = msg.value;\r\n        playerBet[msg.sender].teamSelected = _teamSelected;\r\n        players.push(msg.sender);\r\n\r\n        if (_teamSelected == 0)\r\n        {\r\n            homeTeamamount += msg.value;\r\n        }\r\n        else\r\n        {\r\n            awayTeamamount += msg.value;\r\n        }\r\n    }\r\n\r\n    mapping(address => Player) public playerBet;\r\n\r\n\r\n    function bet(uint256 _teamSelected) public payable {\r\n        playerBet[msg.sender].amountBet = msg.value;\r\n        playerBet[msg.sender].teamSelected = _teamSelected;\r\n        players.push(msg.sender);\r\n\r\n        if (_teamSelected == 0)\r\n        {\r\n            homeTeamamount += msg.value;\r\n        }\r\n        else\r\n        {\r\n            awayTeamamount += msg.value;\r\n        }\r\n\r\n    }\r\n\r\n    function win(uint256 wonteam) public {\r\n\r\n\r\n        address payable[1000] memory winners;\r\n        uint256 count = 0;\r\n        uint256 totalLoser;\r\n        uint256 totalWinner;\r\n        uint256 betlol;\r\n        address add;\r\n        address payable playerAddress;\r\n\r\n        for (uint256 i = 0; i<players.length; i++)\r\n        {\r\n            playerAddress = players[i];\r\n\r\n            if(wonteam == playerBet[msg.sender].teamSelected)\r\n            {\r\n            winners[count] = playerAddress;\r\n            count++;\r\n            }\r\n\r\n        }\r\n        if (wonteam == 0)\r\n        {\r\n            totalWinner = homeTeamamount;\r\n            totalLoser = awayTeamamount;\r\n        }\r\n        else {\r\n            totalWinner = awayTeamamount;\r\n            totalLoser = homeTeamamount;\r\n        }\r\n        for (uint256 j = 0; j < count; j++)\r\n        {\r\n            if (winners[j] != address(0))\r\n            {\r\n                add = winners[j];\r\n                betlol = playerBet[add].amountBet;\r\n                winners[j].transfer((betlol*(10000+(totalLoser*10000/totalWinner)))/10000);\r\n            }\r\n        }\r\n    }\r\n\r\n    function getPlayers() public view returns (address payable[] memory playersArray) {\r\n        return players;\r\n    }\r\n\r\n    function getTotalBetValue() public view returns (uint256 betValue) {\r\n        return homeTeamamount + awayTeamamount;\r\n    }\r\n\r\n    function getPlayerBet(address playerAddress) public view returns (uint256 betValue) {\r\n        return playerBet[playerAddress].amountBet;\r\n    }\r\n}\r\n",
  "sourcePath": "C:/Users/Marien/Documents/GitHub/projectD/project-d/contracts/RouletteContract.sol",
  "compiler": {
    "name": "solc",
    "version": "0.5.7+commit.6da8b019.Emscripten.clang"
  },
  "schemaVersion": "3.0.6",
  "updatedAt": "2019-06-06T11:51:53.757Z",
  "devdoc": {
    "methods": {}
  },
  "userdoc": {
    "methods": {}
  }
}