{
  "contractName": "RouletteContract",
  "abi": [
    {
      "constant": true,
      "inputs": [
        {
          "name": "",
          "type": "uint256"
        }
      ],
      "name": "homeTeamPlayers",
      "outputs": [
        {
          "name": "",
          "type": "address"
        }
      ],
      "payable": false,
      "stateMutability": "view",
      "type": "function"
    },
    {
      "constant": true,
      "inputs": [
        {
          "name": "",
          "type": "address"
        }
      ],
      "name": "playerBet",
      "outputs": [
        {
          "name": "amountBet",
          "type": "uint256"
        },
        {
          "name": "teamSelected",
          "type": "uint256"
        },
        {
          "name": "hasClaimedReward",
          "type": "bool"
        }
      ],
      "payable": false,
      "stateMutability": "view",
      "type": "function"
    },
    {
      "constant": true,
      "inputs": [
        {
          "name": "",
          "type": "uint256"
        }
      ],
      "name": "players",
      "outputs": [
        {
          "name": "",
          "type": "address"
        }
      ],
      "payable": false,
      "stateMutability": "view",
      "type": "function"
    },
    {
      "constant": true,
      "inputs": [
        {
          "name": "",
          "type": "uint256"
        }
      ],
      "name": "awayTeamPlayers",
      "outputs": [
        {
          "name": "",
          "type": "address"
        }
      ],
      "payable": false,
      "stateMutability": "view",
      "type": "function"
    },
    {
      "inputs": [
        {
          "name": "_teamSelected",
          "type": "uint256"
        }
      ],
      "payable": true,
      "stateMutability": "payable",
      "type": "constructor"
    },
    {
      "constant": false,
      "inputs": [
        {
          "name": "_teamSelected",
          "type": "uint256"
        }
      ],
      "name": "bet",
      "outputs": [],
      "payable": true,
      "stateMutability": "payable",
      "type": "function"
    },
    {
      "constant": false,
      "inputs": [
        {
          "name": "winningTeam",
          "type": "uint256"
        }
      ],
      "name": "getReward",
      "outputs": [],
      "payable": true,
      "stateMutability": "payable",
      "type": "function"
    },
    {
      "constant": true,
      "inputs": [
        {
          "name": "winningTeam",
          "type": "uint256"
        }
      ],
      "name": "getRewardValue",
      "outputs": [
        {
          "name": "betValue",
          "type": "uint256"
        }
      ],
      "payable": false,
      "stateMutability": "view",
      "type": "function"
    },
    {
      "constant": true,
      "inputs": [],
      "name": "getPlayers",
      "outputs": [
        {
          "name": "playersArray",
          "type": "address[]"
        }
      ],
      "payable": false,
      "stateMutability": "view",
      "type": "function"
    },
    {
      "constant": true,
      "inputs": [],
      "name": "getTotalBetValue",
      "outputs": [
        {
          "name": "betValue",
          "type": "uint256"
        }
      ],
      "payable": false,
      "stateMutability": "view",
      "type": "function"
    },
    {
      "constant": true,
      "inputs": [
        {
          "name": "playerAddress",
          "type": "address"
        }
      ],
      "name": "getPlayerBet",
      "outputs": [
        {
          "name": "betValue",
          "type": "uint256"
        }
      ],
      "payable": false,
      "stateMutability": "view",
      "type": "function"
    },
    {
      "constant": true,
      "inputs": [],
      "name": "getHomeTeamPlayers",
      "outputs": [
        {
          "name": "homeTeamPlayersArray",
          "type": "address[]"
        }
      ],
      "payable": false,
      "stateMutability": "view",
      "type": "function"
    },
    {
      "constant": true,
      "inputs": [],
      "name": "getAwayTeamPlayers",
      "outputs": [
        {
          "name": "awayTeamPlayersArray",
          "type": "address[]"
        }
      ],
      "payable": false,
      "stateMutability": "view",
      "type": "function"
    },
    {
      "constant": true,
      "inputs": [],
      "name": "checkIfPlayerAlreadyClaimedReward",
      "outputs": [
        {
          "name": "hasClaimed",
          "type": "bool"
        }
      ],
      "payable": false,
      "stateMutability": "view",
      "type": "function"
    }
  ],
  "bytecode": "0x60806040526040516020806110558339810180604052602081101561002357600080fd5b810190808051906020019092919050505034600660003373ffffffffffffffffffffffffffffffffffffffff1673ffffffffffffffffffffffffffffffffffffffff1681526020019081526020016000206000018190555080600660003373ffffffffffffffffffffffffffffffffffffffff1673ffffffffffffffffffffffffffffffffffffffff168152602001908152602001600020600101819055506000600660003373ffffffffffffffffffffffffffffffffffffffff1673ffffffffffffffffffffffffffffffffffffffff16815260200190815260200160002060020160006101000a81548160ff02191690831515021790555060003390806001815401808255809150509060018203906000526020600020016000909192909190916101000a81548173ffffffffffffffffffffffffffffffffffffffff021916908373ffffffffffffffffffffffffffffffffffffffff160217905550506000811415610207573460046000828254019250508190555060013390806001815401808255809150509060018203906000526020600020016000909192909190916101000a81548173ffffffffffffffffffffffffffffffffffffffff021916908373ffffffffffffffffffffffffffffffffffffffff1602179055505061027e565b3460056000828254019250508190555060023390806001815401808255809150509060018203906000526020600020016000909192909190916101000a81548173ffffffffffffffffffffffffffffffffffffffff021916908373ffffffffffffffffffffffffffffffffffffffff160217905550505b3460036000828254019250508190555050610db78061029e6000396000f3fe6080604052600436106100c25760003560e01c80637365870b1161007f578063c137d64311610059578063c137d643146103b3578063e5fa6ff814610418578063f71d96cb14610467578063fd08560f146104e2576100c2565b80637365870b146102ad5780637e9bbb97146102db5780638b5b9ccc14610347576100c2565b80630553ee0b146100c75780630decca44146100f65780631c4b774b14610171578063411ccaec1461019f5780634251ea3c146101ca5780636e93244914610241575b600080fd5b3480156100d357600080fd5b506100dc61055d565b604051808215151515815260200191505060405180910390f35b34801561010257600080fd5b5061012f6004803603602081101561011957600080fd5b81019080803590602001909291905050506105b4565b604051808273ffffffffffffffffffffffffffffffffffffffff1673ffffffffffffffffffffffffffffffffffffffff16815260200191505060405180910390f35b61019d6004803603602081101561018757600080fd5b81019080803590602001909291905050506105f0565b005b3480156101ab57600080fd5b506101b4610781565b6040518082815260200191505060405180910390f35b3480156101d657600080fd5b50610219600480360360208110156101ed57600080fd5b81019080803573ffffffffffffffffffffffffffffffffffffffff16906020019092919050505061078f565b6040518084815260200183815260200182151515158152602001935050505060405180910390f35b34801561024d57600080fd5b506102566107c6565b6040518080602001828103825283818151815260200191508051906020019060200280838360005b8381101561029957808201518184015260208101905061027e565b505050509050019250505060405180910390f35b6102d9600480360360208110156102c357600080fd5b8101908080359060200190929190505050610854565b005b3480156102e757600080fd5b506102f0610ab1565b6040518080602001828103825283818151815260200191508051906020019060200280838360005b83811015610333578082015181840152602081019050610318565b505050509050019250505060405180910390f35b34801561035357600080fd5b5061035c610b3f565b6040518080602001828103825283818151815260200191508051906020019060200280838360005b8381101561039f578082015181840152602081019050610384565b505050509050019250505060405180910390f35b3480156103bf57600080fd5b50610402600480360360208110156103d657600080fd5b81019080803573ffffffffffffffffffffffffffffffffffffffff169060200190929190505050610bcd565b6040518082815260200191505060405180910390f35b34801561042457600080fd5b506104516004803603602081101561043b57600080fd5b8101908080359060200190929190505050610c19565b6040518082815260200191505060405180910390f35b34801561047357600080fd5b506104a06004803603602081101561048a57600080fd5b8101908080359060200190929190505050610d13565b604051808273ffffffffffffffffffffffffffffffffffffffff1673ffffffffffffffffffffffffffffffffffffffff16815260200191505060405180910390f35b3480156104ee57600080fd5b5061051b6004803603602081101561050557600080fd5b8101908080359060200190929190505050610d4f565b604051808273ffffffffffffffffffffffffffffffffffffffff1673ffffffffffffffffffffffffffffffffffffffff16815260200191505060405180910390f35b6000600660003373ffffffffffffffffffffffffffffffffffffffff1673ffffffffffffffffffffffffffffffffffffffff16815260200190815260200160002060020160009054906101000a900460ff16905090565b600181815481106105c157fe5b906000526020600020016000915054906101000a900473ffffffffffffffffffffffffffffffffffffffff1681565b80600660003373ffffffffffffffffffffffffffffffffffffffff1673ffffffffffffffffffffffffffffffffffffffff1681526020019081526020016000206001015414158015610643575060028114155b1561064d5761077e565b60008082141561066b576001805490506005548161066757fe5b0490505b6001821415610688576002805490506004548161068457fe5b0490505b600282141561069657600090505b6001600660003373ffffffffffffffffffffffffffffffffffffffff1673ffffffffffffffffffffffffffffffffffffffff16815260200190815260200160002060020160006101000a81548160ff0219169083151502179055503373ffffffffffffffffffffffffffffffffffffffff166108fc82600660003373ffffffffffffffffffffffffffffffffffffffff1673ffffffffffffffffffffffffffffffffffffffff16815260200190815260200160002060000154019081150290604051600060405180830381858888f1935050505015801561077b573d6000803e3d6000fd5b50505b50565b600060055460045401905090565b60066020528060005260406000206000915090508060000154908060010154908060020160009054906101000a900460ff16905083565b6060600180548060200260200160405190810160405280929190818152602001828054801561084a57602002820191906000526020600020905b8160009054906101000a900473ffffffffffffffffffffffffffffffffffffffff1673ffffffffffffffffffffffffffffffffffffffff1681526020019060010190808311610800575b5050505050905090565b34600660003373ffffffffffffffffffffffffffffffffffffffff1673ffffffffffffffffffffffffffffffffffffffff1681526020019081526020016000206000018190555080600660003373ffffffffffffffffffffffffffffffffffffffff1673ffffffffffffffffffffffffffffffffffffffff168152602001908152602001600020600101819055506000600660003373ffffffffffffffffffffffffffffffffffffffff1673ffffffffffffffffffffffffffffffffffffffff16815260200190815260200160002060020160006101000a81548160ff02191690831515021790555060003390806001815401808255809150509060018203906000526020600020016000909192909190916101000a81548173ffffffffffffffffffffffffffffffffffffffff021916908373ffffffffffffffffffffffffffffffffffffffff160217905550506000811415610a27573460046000828254019250508190555060013390806001815401808255809150509060018203906000526020600020016000909192909190916101000a81548173ffffffffffffffffffffffffffffffffffffffff021916908373ffffffffffffffffffffffffffffffffffffffff16021790555050610a9e565b3460056000828254019250508190555060023390806001815401808255809150509060018203906000526020600020016000909192909190916101000a81548173ffffffffffffffffffffffffffffffffffffffff021916908373ffffffffffffffffffffffffffffffffffffffff160217905550505b3460036000828254019250508190555050565b60606002805480602002602001604051908101604052809291908181526020018280548015610b3557602002820191906000526020600020905b8160009054906101000a900473ffffffffffffffffffffffffffffffffffffffff1673ffffffffffffffffffffffffffffffffffffffff1681526020019060010190808311610aeb575b5050505050905090565b60606000805480602002602001604051908101604052809291908181526020018280548015610bc357602002820191906000526020600020905b8160009054906101000a900473ffffffffffffffffffffffffffffffffffffffff1673ffffffffffffffffffffffffffffffffffffffff1681526020019060010190808311610b79575b5050505050905090565b6000600660008373ffffffffffffffffffffffffffffffffffffffff1673ffffffffffffffffffffffffffffffffffffffff168152602001908152602001600020600001549050919050565b600081600660003373ffffffffffffffffffffffffffffffffffffffff1673ffffffffffffffffffffffffffffffffffffffff1681526020019081526020016000206001015414158015610c6e575060028214155b15610c7c5760009050610d0e565b600080831415610c9a5760018054905060055481610c9657fe5b0490505b6001831415610cb75760028054905060045481610cb357fe5b0490505b6002831415610cc557600090505b80600660003373ffffffffffffffffffffffffffffffffffffffff1673ffffffffffffffffffffffffffffffffffffffff16815260200190815260200160002060000154019150505b919050565b60008181548110610d2057fe5b906000526020600020016000915054906101000a900473ffffffffffffffffffffffffffffffffffffffff1681565b60028181548110610d5c57fe5b906000526020600020016000915054906101000a900473ffffffffffffffffffffffffffffffffffffffff168156fea165627a7a7230582013148c530db97636bf61bb0a01b6b08bc63d16cf50af6424e180f2b855fa87590029",
  "source": "pragma solidity ^0.5.1;\n\ncontract RouletteContract {\n    address payable[] public players;\n    address payable[] public homeTeamPlayers;\n    address payable[] public awayTeamPlayers;\n    uint256 totalBetValue;\n    uint256 homeTeamamount;\n    uint256 awayTeamamount;\n    struct Player {\n        uint256 amountBet;\n        uint256 teamSelected;\n        bool hasClaimedReward;\n    }\n\n    constructor(uint256 _teamSelected) public payable {\n        playerBet[msg.sender].amountBet = msg.value;\n        playerBet[msg.sender].teamSelected = _teamSelected;\n        playerBet[msg.sender].hasClaimedReward = false;\n        players.push(msg.sender);\n\n        if (_teamSelected == 0)\n        {\n            homeTeamamount += msg.value;\n            homeTeamPlayers.push(msg.sender);\n        }\n        else\n        {\n            awayTeamamount += msg.value;\n            awayTeamPlayers.push(msg.sender);\n        }\n\n        totalBetValue += msg.value;\n    }\n\n    mapping(address => Player) public playerBet;\n\n\n    function bet(uint256 _teamSelected) public payable {\n        playerBet[msg.sender].amountBet = msg.value;\n        playerBet[msg.sender].teamSelected = _teamSelected;\n        playerBet[msg.sender].hasClaimedReward = false;\n        players.push(msg.sender);\n\n        if (_teamSelected == 0)\n        {\n            homeTeamamount += msg.value;\n            homeTeamPlayers.push(msg.sender);\n        }\n        else\n        {\n            awayTeamamount += msg.value;\n            awayTeamPlayers.push(msg.sender);\n        }\n        totalBetValue += msg.value;\n\n    }\n\n    function getReward(uint256 winningTeam) public payable {\n\n        if (playerBet[msg.sender].teamSelected != winningTeam && winningTeam != 2) return;\n\n        uint256 bonusEther;\n\n        if (winningTeam == 0) {\n            bonusEther = awayTeamamount / homeTeamPlayers.length;\n        }\n        if (winningTeam == 1) {\n            bonusEther = homeTeamamount / awayTeamPlayers.length;\n        }\n        if (winningTeam == 2) {\n            bonusEther = 0;\n        }\n\n        playerBet[msg.sender].hasClaimedReward = true;\n        msg.sender.transfer(playerBet[msg.sender].amountBet + bonusEther);\n\n    }\n\n    function getRewardValue(uint256 winningTeam) public view returns (uint256 betValue) {\n        if (playerBet[msg.sender].teamSelected != winningTeam && winningTeam != 2) return 0;\n\n        uint256 bonusEther;\n\n        if (winningTeam == 0) {\n            bonusEther = awayTeamamount / homeTeamPlayers.length;\n        }\n        if (winningTeam == 1) {\n            bonusEther = homeTeamamount / awayTeamPlayers.length;\n        }\n        if (winningTeam == 2) {\n            bonusEther = 0;\n        }\n\n        return playerBet[msg.sender].amountBet + bonusEther;\n    }\n\n    function getPlayers() public view returns (address payable[] memory playersArray) {\n        return players;\n    }\n\n    function getTotalBetValue() public view returns (uint256 betValue) {\n        return homeTeamamount + awayTeamamount;\n    }\n\n    function getPlayerBet(address playerAddress) public view returns (uint256 betValue) {\n        return playerBet[playerAddress].amountBet;\n    }\n\n    function getHomeTeamPlayers() public view returns (address payable[] memory homeTeamPlayersArray) {\n        return homeTeamPlayers;\n    }\n\n    function getAwayTeamPlayers() public view returns (address payable[] memory awayTeamPlayersArray) {\n        return awayTeamPlayers;\n    }\n\n    function checkIfPlayerAlreadyClaimedReward() public view returns (bool hasClaimed) {\n        return playerBet[msg.sender].hasClaimedReward;\n    }\n}\n",
  "sourcePath": "/home/okan/WebstormProjects/project-d/contracts/RouletteContract.sol",
  "compiler": {
    "name": "solc",
    "version": "0.5.7+commit.6da8b019.Emscripten.clang"
  },
  "schemaVersion": "3.0.9",
  "updatedAt": "2019-06-10T12:31:37.734Z",
  "devdoc": {
    "methods": {}
  },
  "userdoc": {
    "methods": {}
  }
}