{
  "contractName": "RouletteContract",
  "abi": [
    {
      "constant": true,
      "inputs": [
        {
          "name": "",
          "type": "uint256"
        }
      ],
      "name": "homeTeamPlayers",
      "outputs": [
        {
          "name": "",
          "type": "address"
        }
      ],
      "payable": false,
      "stateMutability": "view",
      "type": "function"
    },
    {
      "constant": true,
      "inputs": [
        {
          "name": "",
          "type": "address"
        }
      ],
      "name": "playerBet",
      "outputs": [
        {
          "name": "amountBet",
          "type": "uint256"
        },
        {
          "name": "teamSelected",
          "type": "uint256"
        },
        {
          "name": "hasClaimedReward",
          "type": "bool"
        }
      ],
      "payable": false,
      "stateMutability": "view",
      "type": "function"
    },
    {
      "constant": true,
      "inputs": [
        {
          "name": "",
          "type": "uint256"
        }
      ],
      "name": "players",
      "outputs": [
        {
          "name": "",
          "type": "address"
        }
      ],
      "payable": false,
      "stateMutability": "view",
      "type": "function"
    },
    {
      "constant": true,
      "inputs": [
        {
          "name": "",
          "type": "uint256"
        }
      ],
      "name": "awayTeamPlayers",
      "outputs": [
        {
          "name": "",
          "type": "address"
        }
      ],
      "payable": false,
      "stateMutability": "view",
      "type": "function"
    },
    {
      "inputs": [
        {
          "name": "_teamSelected",
          "type": "uint256"
        }
      ],
      "payable": true,
      "stateMutability": "payable",
      "type": "constructor"
    },
    {
      "constant": false,
      "inputs": [
        {
          "name": "_teamSelected",
          "type": "uint256"
        }
      ],
      "name": "bet",
      "outputs": [],
      "payable": true,
      "stateMutability": "payable",
      "type": "function"
    },
    {
      "constant": false,
      "inputs": [
        {
          "name": "winningTeam",
          "type": "uint256"
        }
      ],
      "name": "getReward",
      "outputs": [],
      "payable": true,
      "stateMutability": "payable",
      "type": "function"
    },
    {
      "constant": true,
      "inputs": [],
      "name": "getPlayers",
      "outputs": [
        {
          "name": "playersArray",
          "type": "address[]"
        }
      ],
      "payable": false,
      "stateMutability": "view",
      "type": "function"
    },
    {
      "constant": true,
      "inputs": [],
      "name": "getTotalBetValue",
      "outputs": [
        {
          "name": "betValue",
          "type": "uint256"
        }
      ],
      "payable": false,
      "stateMutability": "view",
      "type": "function"
    },
    {
      "constant": true,
      "inputs": [
        {
          "name": "playerAddress",
          "type": "address"
        }
      ],
      "name": "getPlayerBet",
      "outputs": [
        {
          "name": "betValue",
          "type": "uint256"
        }
      ],
      "payable": false,
      "stateMutability": "view",
      "type": "function"
    },
    {
      "constant": true,
      "inputs": [],
      "name": "getHomeTeamPlayers",
      "outputs": [
        {
          "name": "homeTeamPlayersArray",
          "type": "address[]"
        }
      ],
      "payable": false,
      "stateMutability": "view",
      "type": "function"
    },
    {
      "constant": true,
      "inputs": [],
      "name": "getAwayTeamPlayers",
      "outputs": [
        {
          "name": "awayTeamPlayersArray",
          "type": "address[]"
        }
      ],
      "payable": false,
      "stateMutability": "view",
      "type": "function"
    },
    {
      "constant": true,
      "inputs": [],
      "name": "checkIfPlayerAlreadyClaimedReward",
      "outputs": [
        {
          "name": "hasClaimed",
          "type": "bool"
        }
      ],
      "payable": false,
      "stateMutability": "view",
      "type": "function"
    }
  ],
  "bytecode": "0x6080604052604051602080610f0e8339810180604052602081101561002357600080fd5b810190808051906020019092919050505034600660003373ffffffffffffffffffffffffffffffffffffffff1673ffffffffffffffffffffffffffffffffffffffff1681526020019081526020016000206000018190555080600660003373ffffffffffffffffffffffffffffffffffffffff1673ffffffffffffffffffffffffffffffffffffffff168152602001908152602001600020600101819055506000600660003373ffffffffffffffffffffffffffffffffffffffff1673ffffffffffffffffffffffffffffffffffffffff16815260200190815260200160002060020160006101000a81548160ff02191690831515021790555060003390806001815401808255809150509060018203906000526020600020016000909192909190916101000a81548173ffffffffffffffffffffffffffffffffffffffff021916908373ffffffffffffffffffffffffffffffffffffffff160217905550506000811415610207573460046000828254019250508190555060013390806001815401808255809150509060018203906000526020600020016000909192909190916101000a81548173ffffffffffffffffffffffffffffffffffffffff021916908373ffffffffffffffffffffffffffffffffffffffff1602179055505061027e565b3460056000828254019250508190555060023390806001815401808255809150509060018203906000526020600020016000909192909190916101000a81548173ffffffffffffffffffffffffffffffffffffffff021916908373ffffffffffffffffffffffffffffffffffffffff160217905550505b3460036000828254019250508190555050610c708061029e6000396000f3fe6080604052600436106100c4576000357c0100000000000000000000000000000000000000000000000000000000900480637365870b116100815780637365870b146102af5780637e9bbb97146102dd5780638b5b9ccc14610349578063c137d643146103b5578063f71d96cb1461041a578063fd08560f14610495576100c4565b80630553ee0b146100c95780630decca44146100f85780631c4b774b14610173578063411ccaec146101a15780634251ea3c146101cc5780636e93244914610243575b600080fd5b3480156100d557600080fd5b506100de610510565b604051808215151515815260200191505060405180910390f35b34801561010457600080fd5b506101316004803603602081101561011b57600080fd5b8101908080359060200190929190505050610567565b604051808273ffffffffffffffffffffffffffffffffffffffff1673ffffffffffffffffffffffffffffffffffffffff16815260200191505060405180910390f35b61019f6004803603602081101561018957600080fd5b81019080803590602001909291905050506105a3565b005b3480156101ad57600080fd5b506101b6610734565b6040518082815260200191505060405180910390f35b3480156101d857600080fd5b5061021b600480360360208110156101ef57600080fd5b81019080803573ffffffffffffffffffffffffffffffffffffffff169060200190929190505050610742565b6040518084815260200183815260200182151515158152602001935050505060405180910390f35b34801561024f57600080fd5b50610258610779565b6040518080602001828103825283818151815260200191508051906020019060200280838360005b8381101561029b578082015181840152602081019050610280565b505050509050019250505060405180910390f35b6102db600480360360208110156102c557600080fd5b8101908080359060200190929190505050610807565b005b3480156102e957600080fd5b506102f2610a64565b6040518080602001828103825283818151815260200191508051906020019060200280838360005b8381101561033557808201518184015260208101905061031a565b505050509050019250505060405180910390f35b34801561035557600080fd5b5061035e610af2565b6040518080602001828103825283818151815260200191508051906020019060200280838360005b838110156103a1578082015181840152602081019050610386565b505050509050019250505060405180910390f35b3480156103c157600080fd5b50610404600480360360208110156103d857600080fd5b81019080803573ffffffffffffffffffffffffffffffffffffffff169060200190929190505050610b80565b6040518082815260200191505060405180910390f35b34801561042657600080fd5b506104536004803603602081101561043d57600080fd5b8101908080359060200190929190505050610bcc565b604051808273ffffffffffffffffffffffffffffffffffffffff1673ffffffffffffffffffffffffffffffffffffffff16815260200191505060405180910390f35b3480156104a157600080fd5b506104ce600480360360208110156104b857600080fd5b8101908080359060200190929190505050610c08565b604051808273ffffffffffffffffffffffffffffffffffffffff1673ffffffffffffffffffffffffffffffffffffffff16815260200191505060405180910390f35b6000600660003373ffffffffffffffffffffffffffffffffffffffff1673ffffffffffffffffffffffffffffffffffffffff16815260200190815260200160002060020160009054906101000a900460ff16905090565b6001818154811061057457fe5b906000526020600020016000915054906101000a900473ffffffffffffffffffffffffffffffffffffffff1681565b80600660003373ffffffffffffffffffffffffffffffffffffffff1673ffffffffffffffffffffffffffffffffffffffff16815260200190815260200160002060010154141580156105f6575060028114155b1561060057610731565b60008082141561061e576001805490506005548161061a57fe5b0490505b600182141561063b576002805490506004548161063757fe5b0490505b600282141561064957600090505b6001600660003373ffffffffffffffffffffffffffffffffffffffff1673ffffffffffffffffffffffffffffffffffffffff16815260200190815260200160002060020160006101000a81548160ff0219169083151502179055503373ffffffffffffffffffffffffffffffffffffffff166108fc82600660003373ffffffffffffffffffffffffffffffffffffffff1673ffffffffffffffffffffffffffffffffffffffff16815260200190815260200160002060000154019081150290604051600060405180830381858888f1935050505015801561072e573d6000803e3d6000fd5b50505b50565b600060055460045401905090565b60066020528060005260406000206000915090508060000154908060010154908060020160009054906101000a900460ff16905083565b606060018054806020026020016040519081016040528092919081815260200182805480156107fd57602002820191906000526020600020905b8160009054906101000a900473ffffffffffffffffffffffffffffffffffffffff1673ffffffffffffffffffffffffffffffffffffffff16815260200190600101908083116107b3575b5050505050905090565b34600660003373ffffffffffffffffffffffffffffffffffffffff1673ffffffffffffffffffffffffffffffffffffffff1681526020019081526020016000206000018190555080600660003373ffffffffffffffffffffffffffffffffffffffff1673ffffffffffffffffffffffffffffffffffffffff168152602001908152602001600020600101819055506000600660003373ffffffffffffffffffffffffffffffffffffffff1673ffffffffffffffffffffffffffffffffffffffff16815260200190815260200160002060020160006101000a81548160ff02191690831515021790555060003390806001815401808255809150509060018203906000526020600020016000909192909190916101000a81548173ffffffffffffffffffffffffffffffffffffffff021916908373ffffffffffffffffffffffffffffffffffffffff1602179055505060008114156109da573460046000828254019250508190555060013390806001815401808255809150509060018203906000526020600020016000909192909190916101000a81548173ffffffffffffffffffffffffffffffffffffffff021916908373ffffffffffffffffffffffffffffffffffffffff16021790555050610a51565b3460056000828254019250508190555060023390806001815401808255809150509060018203906000526020600020016000909192909190916101000a81548173ffffffffffffffffffffffffffffffffffffffff021916908373ffffffffffffffffffffffffffffffffffffffff160217905550505b3460036000828254019250508190555050565b60606002805480602002602001604051908101604052809291908181526020018280548015610ae857602002820191906000526020600020905b8160009054906101000a900473ffffffffffffffffffffffffffffffffffffffff1673ffffffffffffffffffffffffffffffffffffffff1681526020019060010190808311610a9e575b5050505050905090565b60606000805480602002602001604051908101604052809291908181526020018280548015610b7657602002820191906000526020600020905b8160009054906101000a900473ffffffffffffffffffffffffffffffffffffffff1673ffffffffffffffffffffffffffffffffffffffff1681526020019060010190808311610b2c575b5050505050905090565b6000600660008373ffffffffffffffffffffffffffffffffffffffff1673ffffffffffffffffffffffffffffffffffffffff168152602001908152602001600020600001549050919050565b60008181548110610bd957fe5b906000526020600020016000915054906101000a900473ffffffffffffffffffffffffffffffffffffffff1681565b60028181548110610c1557fe5b906000526020600020016000915054906101000a900473ffffffffffffffffffffffffffffffffffffffff168156fea165627a7a72305820a122a98e8acea45d95754df3666d3b3efca54257c2d801dec9c2bd6ca183cdde0029",
  "source": "pragma solidity ^0.5.1;\n\ncontract RouletteContract {\n    address payable[] public players;\n    address payable[] public homeTeamPlayers;\n    address payable[] public awayTeamPlayers;\n    uint256 totalBetValue;\n    uint256 homeTeamamount;\n    uint256 awayTeamamount;\n    struct Player {\n        uint256 amountBet;\n        uint256 teamSelected;\n        bool hasClaimedReward;\n    }\n\n    constructor(uint256 _teamSelected) public payable {\n        playerBet[msg.sender].amountBet = msg.value;\n        playerBet[msg.sender].teamSelected = _teamSelected;\n        playerBet[msg.sender].hasClaimedReward = false;\n        players.push(msg.sender);\n\n        if (_teamSelected == 0)\n        {\n            homeTeamamount += msg.value;\n            homeTeamPlayers.push(msg.sender);\n        }\n        else\n        {\n            awayTeamamount += msg.value;\n            awayTeamPlayers.push(msg.sender);\n        }\n\n        totalBetValue += msg.value;\n    }\n\n    mapping(address => Player) public playerBet;\n\n\n    function bet(uint256 _teamSelected) public payable {\n        playerBet[msg.sender].amountBet = msg.value;\n        playerBet[msg.sender].teamSelected = _teamSelected;\n        playerBet[msg.sender].hasClaimedReward = false;\n        players.push(msg.sender);\n\n        if (_teamSelected == 0)\n        {\n            homeTeamamount += msg.value;\n            homeTeamPlayers.push(msg.sender);\n        }\n        else\n        {\n            awayTeamamount += msg.value;\n            awayTeamPlayers.push(msg.sender);\n        }\n        totalBetValue += msg.value;\n\n    }\n\n    function getReward(uint256 winningTeam) public payable {\n\n        if (playerBet[msg.sender].teamSelected != winningTeam && winningTeam != 2) return;\n\n        uint256 bonusEther;\n\n        if (winningTeam == 0) {\n            bonusEther = awayTeamamount / homeTeamPlayers.length;\n        }\n        if (winningTeam == 1) {\n            bonusEther = homeTeamamount / awayTeamPlayers.length;\n        }\n        if (winningTeam == 2) {\n            bonusEther = 0;\n        }\n\n        playerBet[msg.sender].hasClaimedReward = true;\n        msg.sender.transfer(playerBet[msg.sender].amountBet + bonusEther);\n\n    }\n\n    function getPlayers() public view returns (address payable[] memory playersArray) {\n        return players;\n    }\n\n    function getTotalBetValue() public view returns (uint256 betValue) {\n        return homeTeamamount + awayTeamamount;\n    }\n\n    function getPlayerBet(address playerAddress) public view returns (uint256 betValue) {\n        return playerBet[playerAddress].amountBet;\n    }\n\n    function getHomeTeamPlayers() public view returns (address payable[] memory homeTeamPlayersArray) {\n        return homeTeamPlayers;\n    }\n\n    function getAwayTeamPlayers() public view returns (address payable[] memory awayTeamPlayersArray) {\n        return awayTeamPlayers;\n    }\n\n    function checkIfPlayerAlreadyClaimedReward() public view returns (bool hasClaimed) {\n        return playerBet[msg.sender].hasClaimedReward;\n    }\n}\n",
  "sourcePath": "/home/okan/WebstormProjects/project-d/contracts/RouletteContract.sol",
  "compiler": {
    "name": "solc",
    "version": "0.5.7+commit.6da8b019.Emscripten.clang"
  },
  "schemaVersion": "3.0.6",
  "updatedAt": "2019-06-11T11:23:45.842Z",
  "devdoc": {
    "methods": {}
  },
  "userdoc": {
    "methods": {}
  }
}