{
  "contractName": "RouletteContract",
  "abi": [
    {
      "constant": true,
      "inputs": [
        {
          "name": "",
          "type": "address"
        }
      ],
      "name": "playerBet",
      "outputs": [
        {
          "name": "",
          "type": "uint256"
        }
      ],
      "payable": false,
      "stateMutability": "view",
      "type": "function"
    },
    {
      "constant": true,
      "inputs": [],
      "name": "totalBetValue",
      "outputs": [
        {
          "name": "",
          "type": "uint256"
        }
      ],
      "payable": false,
      "stateMutability": "view",
      "type": "function"
    },
    {
      "constant": true,
      "inputs": [],
      "name": "owner",
      "outputs": [
        {
          "name": "",
          "type": "address"
        }
      ],
      "payable": false,
      "stateMutability": "view",
      "type": "function"
    },
    {
      "constant": true,
      "inputs": [
        {
          "name": "",
          "type": "uint256"
        }
      ],
      "name": "players",
      "outputs": [
        {
          "name": "",
          "type": "address"
        }
      ],
      "payable": false,
      "stateMutability": "view",
      "type": "function"
    },
    {
      "inputs": [],
      "payable": true,
      "stateMutability": "payable",
      "type": "constructor"
    },
    {
      "constant": false,
      "inputs": [],
      "name": "addPlayer",
      "outputs": [],
      "payable": true,
      "stateMutability": "payable",
      "type": "function"
    },
    {
      "constant": false,
      "inputs": [],
      "name": "win",
      "outputs": [],
      "payable": false,
      "stateMutability": "nonpayable",
      "type": "function"
    },
    {
      "constant": true,
      "inputs": [],
      "name": "getPlayers",
      "outputs": [
        {
          "name": "playersArray",
          "type": "address[]"
        }
      ],
      "payable": false,
      "stateMutability": "view",
      "type": "function"
    },
    {
      "constant": true,
      "inputs": [],
      "name": "getTotalBetValue",
      "outputs": [
        {
          "name": "betValue",
          "type": "uint256"
        }
      ],
      "payable": false,
      "stateMutability": "view",
      "type": "function"
    },
    {
      "constant": true,
      "inputs": [
        {
          "name": "playerAddress",
          "type": "address"
        }
      ],
      "name": "getPlayerBet",
      "outputs": [
        {
          "name": "betValue",
          "type": "uint256"
        }
      ],
      "payable": false,
      "stateMutability": "view",
      "type": "function"
    }
  ],
  "bytecode": "0x6080604052600060025533600160006101000a81548173ffffffffffffffffffffffffffffffffffffffff021916908373ffffffffffffffffffffffffffffffffffffffff16021790555060003390806001815401808255809150509060018203906000526020600020016000909192909190916101000a81548173ffffffffffffffffffffffffffffffffffffffff021916908373ffffffffffffffffffffffffffffffffffffffff1602179055505034600360003373ffffffffffffffffffffffffffffffffffffffff1673ffffffffffffffffffffffffffffffffffffffff168152602001908152602001600020819055503460026000828254019250508190555061059e806101136000396000f3fe6080604052600436106100865760003560e01c80634ce01d86116100595780634ce01d861461013c5780638b5b9ccc146101675780638da5cb5b146101d3578063c137d6431461022a578063f71d96cb1461028f57610086565b806327b5db8a1461008b578063411ccaec146100955780634251ea3c146100c0578063473ca96c14610125575b600080fd5b61009361030a565b005b3480156100a157600080fd5b506100aa6103c6565b6040518082815260200191505060405180910390f35b3480156100cc57600080fd5b5061010f600480360360208110156100e357600080fd5b81019080803573ffffffffffffffffffffffffffffffffffffffff1690602001909291905050506103d0565b6040518082815260200191505060405180910390f35b34801561013157600080fd5b5061013a6103e8565b005b34801561014857600080fd5b50610151610433565b6040518082815260200191505060405180910390f35b34801561017357600080fd5b5061017c610439565b6040518080602001828103825283818151815260200191508051906020019060200280838360005b838110156101bf5780820151818401526020810190506101a4565b505050509050019250505060405180910390f35b3480156101df57600080fd5b506101e86104c7565b604051808273ffffffffffffffffffffffffffffffffffffffff1673ffffffffffffffffffffffffffffffffffffffff16815260200191505060405180910390f35b34801561023657600080fd5b506102796004803603602081101561024d57600080fd5b81019080803573ffffffffffffffffffffffffffffffffffffffff1690602001909291905050506104ed565b6040518082815260200191505060405180910390f35b34801561029b57600080fd5b506102c8600480360360208110156102b257600080fd5b8101908080359060200190929190505050610536565b604051808273ffffffffffffffffffffffffffffffffffffffff1673ffffffffffffffffffffffffffffffffffffffff16815260200191505060405180910390f35b60003390806001815401808255809150509060018203906000526020600020016000909192909190916101000a81548173ffffffffffffffffffffffffffffffffffffffff021916908373ffffffffffffffffffffffffffffffffffffffff1602179055505034600360003373ffffffffffffffffffffffffffffffffffffffff1673ffffffffffffffffffffffffffffffffffffffff1681526020019081526020016000208190555034600260008282540192505081905550565b6000600254905090565b60036020528060005260406000206000915090505481565b3373ffffffffffffffffffffffffffffffffffffffff166108fc6002549081150290604051600060405180830381858888f19350505050158015610430573d6000803e3d6000fd5b50565b60025481565b606060008054806020026020016040519081016040528092919081815260200182805480156104bd57602002820191906000526020600020905b8160009054906101000a900473ffffffffffffffffffffffffffffffffffffffff1673ffffffffffffffffffffffffffffffffffffffff1681526020019060010190808311610473575b5050505050905090565b600160009054906101000a900473ffffffffffffffffffffffffffffffffffffffff1681565b6000600360008373ffffffffffffffffffffffffffffffffffffffff1673ffffffffffffffffffffffffffffffffffffffff168152602001908152602001600020549050919050565b6000818154811061054357fe5b906000526020600020016000915054906101000a900473ffffffffffffffffffffffffffffffffffffffff168156fea165627a7a723058208d995d092596d1135dc7d607addf4b1074bb6cea98a9b11dee35ddb6faaf66760029",
  "source": "pragma solidity ^0.5.7;\n\ncontract RouletteContract {\n    address[] public players;\n    address public owner;\n    uint256 public totalBetValue = 0;\n\n    mapping(address => uint256) public playerBet;\n\n    constructor() public payable {\n        owner = msg.sender;\n        players.push(msg.sender);\n        playerBet[msg.sender] = msg.value;\n        totalBetValue += msg.value;\n    }\n\n    function addPlayer() public payable {\n        players.push(msg.sender);\n        playerBet[msg.sender] = msg.value;\n        totalBetValue += msg.value;\n    }\n\n    function win() public {\n        msg.sender.transfer(totalBetValue);\n    }\n\n    function getPlayers() public view returns (address[] memory playersArray) {\n        return players;\n    }\n\n    function getTotalBetValue() public view returns (uint256 betValue) {\n        return totalBetValue;\n    }\n\n    function getPlayerBet(address playerAddress) public view returns (uint256 betValue) {\n        return playerBet[playerAddress];\n    }\n}",
  "sourcePath": "/home/okan/WebstormProjects/project-d/contracts/RouletteContract.sol",
  "compiler": {
    "name": "solc",
    "version": "0.5.7+commit.6da8b019.Emscripten.clang"
  },
  "schemaVersion": "3.0.9",
  "updatedAt": "2019-05-15T21:28:10.099Z",
  "devdoc": {
    "methods": {}
  },
  "userdoc": {
    "methods": {}
  }
}