{
  "contractName": "RouletteContract",
  "abi": [
    {
      "constant": true,
      "inputs": [
        {
          "name": "",
          "type": "address"
        }
      ],
      "name": "playerBet",
      "outputs": [
        {
          "name": "",
          "type": "uint256"
        }
      ],
      "payable": false,
      "stateMutability": "view",
      "type": "function",
      "signature": "0x4251ea3c"
    },
    {
      "constant": true,
      "inputs": [],
      "name": "totalBetValue",
      "outputs": [
        {
          "name": "",
          "type": "uint256"
        }
      ],
      "payable": false,
      "stateMutability": "view",
      "type": "function",
      "signature": "0x4ce01d86"
    },
    {
      "constant": true,
      "inputs": [],
      "name": "owner",
      "outputs": [
        {
          "name": "",
          "type": "address"
        }
      ],
      "payable": false,
      "stateMutability": "view",
      "type": "function",
      "signature": "0x8da5cb5b"
    },
    {
      "constant": true,
      "inputs": [
        {
          "name": "",
          "type": "uint256"
        }
      ],
      "name": "players",
      "outputs": [
        {
          "name": "",
          "type": "address"
        }
      ],
      "payable": false,
      "stateMutability": "view",
      "type": "function",
      "signature": "0xf71d96cb"
    },
    {
      "inputs": [],
      "payable": true,
      "stateMutability": "payable",
      "type": "constructor",
      "signature": "constructor"
    },
    {
      "constant": false,
      "inputs": [],
      "name": "addPlayer",
      "outputs": [],
      "payable": true,
      "stateMutability": "payable",
      "type": "function",
      "signature": "0x27b5db8a"
    },
    {
      "constant": false,
      "inputs": [],
      "name": "win",
      "outputs": [],
      "payable": false,
      "stateMutability": "nonpayable",
      "type": "function",
      "signature": "0x473ca96c"
    },
    {
      "constant": true,
      "inputs": [],
      "name": "getPlayers",
      "outputs": [
        {
          "name": "playersArray",
          "type": "address[]"
        }
      ],
      "payable": false,
      "stateMutability": "view",
      "type": "function",
      "signature": "0x8b5b9ccc"
    },
    {
      "constant": true,
      "inputs": [],
      "name": "getTotalBetValue",
      "outputs": [
        {
          "name": "betValue",
          "type": "uint256"
        }
      ],
      "payable": false,
      "stateMutability": "view",
      "type": "function",
      "signature": "0x411ccaec"
    }
  ],
  "bytecode": "0x6080604052600060025533600160006101000a81548173ffffffffffffffffffffffffffffffffffffffff021916908373ffffffffffffffffffffffffffffffffffffffff16021790555060003390806001815401808255809150509060018203906000526020600020016000909192909190916101000a81548173ffffffffffffffffffffffffffffffffffffffff021916908373ffffffffffffffffffffffffffffffffffffffff1602179055505034600360003373ffffffffffffffffffffffffffffffffffffffff1673ffffffffffffffffffffffffffffffffffffffff1681526020019081526020016000208190555034600260008282540192505081905550610502806101136000396000f3fe608060405260043610610098576000357c0100000000000000000000000000000000000000000000000000000000900480634ce01d861161006b5780634ce01d861461014e5780638b5b9ccc146101795780638da5cb5b146101e5578063f71d96cb1461023c57610098565b806327b5db8a1461009d578063411ccaec146100a75780634251ea3c146100d2578063473ca96c14610137575b600080fd5b6100a56102b7565b005b3480156100b357600080fd5b506100bc610373565b6040518082815260200191505060405180910390f35b3480156100de57600080fd5b50610121600480360360208110156100f557600080fd5b81019080803573ffffffffffffffffffffffffffffffffffffffff16906020019092919050505061037d565b6040518082815260200191505060405180910390f35b34801561014357600080fd5b5061014c610395565b005b34801561015a57600080fd5b506101636103e0565b6040518082815260200191505060405180910390f35b34801561018557600080fd5b5061018e6103e6565b6040518080602001828103825283818151815260200191508051906020019060200280838360005b838110156101d15780820151818401526020810190506101b6565b505050509050019250505060405180910390f35b3480156101f157600080fd5b506101fa610474565b604051808273ffffffffffffffffffffffffffffffffffffffff1673ffffffffffffffffffffffffffffffffffffffff16815260200191505060405180910390f35b34801561024857600080fd5b506102756004803603602081101561025f57600080fd5b810190808035906020019092919050505061049a565b604051808273ffffffffffffffffffffffffffffffffffffffff1673ffffffffffffffffffffffffffffffffffffffff16815260200191505060405180910390f35b60003390806001815401808255809150509060018203906000526020600020016000909192909190916101000a81548173ffffffffffffffffffffffffffffffffffffffff021916908373ffffffffffffffffffffffffffffffffffffffff1602179055505034600360003373ffffffffffffffffffffffffffffffffffffffff1673ffffffffffffffffffffffffffffffffffffffff1681526020019081526020016000208190555034600260008282540192505081905550565b6000600254905090565b60036020528060005260406000206000915090505481565b3373ffffffffffffffffffffffffffffffffffffffff166108fc6002549081150290604051600060405180830381858888f193505050501580156103dd573d6000803e3d6000fd5b50565b60025481565b6060600080548060200260200160405190810160405280929190818152602001828054801561046a57602002820191906000526020600020905b8160009054906101000a900473ffffffffffffffffffffffffffffffffffffffff1673ffffffffffffffffffffffffffffffffffffffff1681526020019060010190808311610420575b5050505050905090565b600160009054906101000a900473ffffffffffffffffffffffffffffffffffffffff1681565b600081815481106104a757fe5b906000526020600020016000915054906101000a900473ffffffffffffffffffffffffffffffffffffffff168156fea165627a7a723058204ff3bdfe72b2708e2662193f3703c5ef53d0bc68948c98eecdb628d04554dfd20029",
  "source": "pragma solidity ^0.5.7;\r\n\r\ncontract RouletteContract {\r\n    address[] public players;\r\n    address public owner;\r\n    uint256 public totalBetValue = 0;\r\n\r\n    mapping(address => uint256) public playerBet;\r\n\r\n    constructor() public payable {\r\n        owner = msg.sender;\r\n        players.push(msg.sender);\r\n        playerBet[msg.sender] = msg.value;\r\n        totalBetValue += msg.value;\r\n    }\r\n\r\n    function addPlayer() public payable {\r\n        players.push(msg.sender);\r\n        playerBet[msg.sender] = msg.value;\r\n        totalBetValue += msg.value;\r\n    }\r\n\r\n    function win() public {\r\n        msg.sender.transfer(totalBetValue);\r\n    }\r\n\r\n    function getPlayers() public view returns (address[] memory playersArray) {\r\n        return players;\r\n    }\r\n\r\n    function getTotalBetValue() public view returns (uint256 betValue) {\r\n        return totalBetValue;\r\n    }\r\n}",
  "sourcePath": "C:/Users/Okan Emeni/Documents/Projects/eth-react/contracts/RouletteContract.sol",
  "compiler": {
    "name": "solc",
    "version": "0.5.7+commit.6da8b019.Emscripten.clang"
  },
  "schemaVersion": "3.0.8",
  "updatedAt": "2019-04-27T11:36:11.078Z",
  "devdoc": {
    "methods": {}
  },
  "userdoc": {
    "methods": {}
  }
}