{
  "contractName": "RouletteContract",
  "abi": [
    {
      "constant": true,
      "inputs": [
        {
          "name": "",
          "type": "address"
        }
      ],
      "name": "playerBet",
      "outputs": [
        {
          "name": "amountBet",
          "type": "uint256"
        },
        {
          "name": "teamSelected",
          "type": "uint256"
        }
      ],
      "payable": false,
      "stateMutability": "view",
      "type": "function"
    },
    {
      "constant": true,
      "inputs": [
        {
          "name": "",
          "type": "uint256"
        }
      ],
      "name": "players",
      "outputs": [
        {
          "name": "",
          "type": "address"
        }
      ],
      "payable": false,
      "stateMutability": "view",
      "type": "function"
    },
    {
      "inputs": [
        {
          "name": "_teamSelected",
          "type": "uint256"
        }
      ],
      "payable": true,
      "stateMutability": "payable",
      "type": "constructor"
    },
    {
      "constant": false,
      "inputs": [
        {
          "name": "_teamSelected",
          "type": "uint256"
        }
      ],
      "name": "bet",
      "outputs": [],
      "payable": true,
      "stateMutability": "payable",
      "type": "function"
    },
    {
      "constant": false,
      "inputs": [
        {
          "name": "wonteam",
          "type": "uint256"
        }
      ],
      "name": "win",
      "outputs": [],
      "payable": true,
      "stateMutability": "payable",
      "type": "function"
    },
    {
      "constant": true,
      "inputs": [],
      "name": "getPlayers",
      "outputs": [
        {
          "name": "playersArray",
          "type": "address[]"
        }
      ],
      "payable": false,
      "stateMutability": "view",
      "type": "function"
    },
    {
      "constant": true,
      "inputs": [],
      "name": "getTotalBetValue",
      "outputs": [
        {
          "name": "betValue",
          "type": "uint256"
        }
      ],
      "payable": false,
      "stateMutability": "view",
      "type": "function"
    },
    {
      "constant": true,
      "inputs": [
        {
          "name": "playerAddress",
          "type": "address"
        }
      ],
      "name": "getPlayerBet",
      "outputs": [
        {
          "name": "betValue",
          "type": "uint256"
        }
      ],
      "payable": false,
      "stateMutability": "view",
      "type": "function"
    }
  ],
  "bytecode": "0x608060405260405160208061095c8339810180604052602081101561002357600080fd5b810190808051906020019092919050505034600460003373ffffffffffffffffffffffffffffffffffffffff1673ffffffffffffffffffffffffffffffffffffffff1681526020019081526020016000206000018190555080600460003373ffffffffffffffffffffffffffffffffffffffff1673ffffffffffffffffffffffffffffffffffffffff1681526020019081526020016000206001018190555060003390806001815401808255809150509060018203906000526020600020016000909192909190916101000a81548173ffffffffffffffffffffffffffffffffffffffff021916908373ffffffffffffffffffffffffffffffffffffffff1602179055505060008114156101465734600260008282540192505081905550610157565b346003600082825401925050819055505b506107f5806101676000396000f3fe60806040526004361061008d576000357c0100000000000000000000000000000000000000000000000000000000900480637365870b1161006b5780637365870b146101575780638b5b9ccc14610185578063c137d643146101f1578063f71d96cb146102565761008d565b8063411ccaec146100925780634251ea3c146100bd5780635bc60cfc14610129575b600080fd5b34801561009e57600080fd5b506100a76102d1565b6040518082815260200191505060405180910390f35b3480156100c957600080fd5b5061010c600480360360208110156100e057600080fd5b81019080803573ffffffffffffffffffffffffffffffffffffffff1690602001909291905050506102df565b604051808381526020018281526020019250505060405180910390f35b6101556004803603602081101561013f57600080fd5b8101908080359060200190929190505050610303565b005b6101836004803603602081101561016d57600080fd5b8101908080359060200190929190505050610569565b005b34801561019157600080fd5b5061019a61068f565b6040518080602001828103825283818151815260200191508051906020019060200280838360005b838110156101dd5780820151818401526020810190506101c2565b505050509050019250505060405180910390f35b3480156101fd57600080fd5b506102406004803603602081101561021457600080fd5b81019080803573ffffffffffffffffffffffffffffffffffffffff16906020019092919050505061071d565b6040518082815260200191505060405180910390f35b34801561026257600080fd5b5061028f6004803603602081101561027957600080fd5b8101908080359060200190929190505050610769565b604051808273ffffffffffffffffffffffffffffffffffffffff1673ffffffffffffffffffffffffffffffffffffffff16815260200191505060405180910390f35b600060035460025401905090565b60046020528060005260406000206000915090508060000154908060010154905082565b61030b6107a5565b6000809050600080600080600080600090505b60008054905081101561040a576000818154811061033857fe5b9060005260206000200160009054906101000a900473ffffffffffffffffffffffffffffffffffffffff169150600460003373ffffffffffffffffffffffffffffffffffffffff1673ffffffffffffffffffffffffffffffffffffffff168152602001908152602001600020600101548914156103fd578188886103e881106103bd57fe5b602002019073ffffffffffffffffffffffffffffffffffffffff16908173ffffffffffffffffffffffffffffffffffffffff168152505086806001019750505b808060010191505061031e565b506000881415610423576002549350600354945061042e565b600354935060025494505b60008090505b8681101561055e57600073ffffffffffffffffffffffffffffffffffffffff1688826103e8811061046157fe5b602002015173ffffffffffffffffffffffffffffffffffffffff16146105515787816103e8811061048e57fe5b60200201519250600460008473ffffffffffffffffffffffffffffffffffffffff1673ffffffffffffffffffffffffffffffffffffffff16815260200190815260200160002060000154935087816103e881106104e757fe5b602002015173ffffffffffffffffffffffffffffffffffffffff166108fc612710876127108a028161051557fe5b046127100187028161052357fe5b049081150290604051600060405180830381858888f1935050505015801561054f573d6000803e3d6000fd5b505b8080600101915050610434565b505050505050505050565b34600460003373ffffffffffffffffffffffffffffffffffffffff1673ffffffffffffffffffffffffffffffffffffffff1681526020019081526020016000206000018190555080600460003373ffffffffffffffffffffffffffffffffffffffff1673ffffffffffffffffffffffffffffffffffffffff1681526020019081526020016000206001018190555060003390806001815401808255809150509060018203906000526020600020016000909192909190916101000a81548173ffffffffffffffffffffffffffffffffffffffff021916908373ffffffffffffffffffffffffffffffffffffffff16021790555050600081141561067b573460026000828254019250508190555061068c565b346003600082825401925050819055505b50565b6060600080548060200260200160405190810160405280929190818152602001828054801561071357602002820191906000526020600020905b8160009054906101000a900473ffffffffffffffffffffffffffffffffffffffff1673ffffffffffffffffffffffffffffffffffffffff16815260200190600101908083116106c9575b5050505050905090565b6000600460008373ffffffffffffffffffffffffffffffffffffffff1673ffffffffffffffffffffffffffffffffffffffff168152602001908152602001600020600001549050919050565b6000818154811061077657fe5b906000526020600020016000915054906101000a900473ffffffffffffffffffffffffffffffffffffffff1681565b60405180617d0001604052806103e89060208202803883398082019150509050509056fea165627a7a72305820dbf66c08eca1f691906f2dd8890fc15b33908a28e2e30b607b18b2f1b3bbc1b90029",
  "source": "pragma solidity ^0.5.1;\r\n\r\ncontract RouletteContract {\r\n    address payable[] public players;\r\n    uint256 totalBetValue;\r\n    uint256 homeTeamamount;\r\n    uint256 awayTeamamount;\r\n    struct Player {\r\n        uint256 amountBet;\r\n        uint256 teamSelected;\r\n    }\r\n\r\n    constructor(uint256 _teamSelected) public payable {\r\n        playerBet[msg.sender].amountBet = msg.value;\r\n        playerBet[msg.sender].teamSelected = _teamSelected;\r\n        players.push(msg.sender);\r\n\r\n        if (_teamSelected == 0)\r\n        {\r\n            homeTeamamount += msg.value;\r\n        }\r\n        else\r\n        {\r\n            awayTeamamount += msg.value;\r\n        }\r\n    }\r\n\r\n    mapping(address => Player) public playerBet;\r\n\r\n\r\n    function bet(uint256 _teamSelected) public payable {\r\n        playerBet[msg.sender].amountBet = msg.value;\r\n        playerBet[msg.sender].teamSelected = _teamSelected;\r\n        players.push(msg.sender);\r\n\r\n        if (_teamSelected == 0)\r\n        {\r\n            homeTeamamount += msg.value;\r\n        }\r\n        else\r\n        {\r\n            awayTeamamount += msg.value;\r\n        }\r\n\r\n    }\r\n\r\n    function win(uint256 wonteam) public payable {\r\n\r\n\r\n        address payable[1000] memory winners;\r\n        uint256 count = 0;\r\n        uint256 totalLoser;\r\n        uint256 totalWinner;\r\n        uint256 betlol;\r\n        address add;\r\n        address payable playerAddress;\r\n\r\n        for (uint256 i = 0; i<players.length; i++)\r\n        {\r\n            playerAddress = players[i];\r\n\r\n            if(wonteam == playerBet[msg.sender].teamSelected)\r\n            {\r\n            winners[count] = playerAddress;\r\n            count++;\r\n            }\r\n\r\n        }\r\n        if (wonteam == 0)\r\n        {\r\n            totalWinner = homeTeamamount;\r\n            totalLoser = awayTeamamount;\r\n        }\r\n        else {\r\n            totalWinner = awayTeamamount;\r\n            totalLoser = homeTeamamount;\r\n        }\r\n        for (uint256 j = 0; j < count; j++)\r\n        {\r\n            if (winners[j] != address(0))\r\n            {\r\n                add = winners[j];\r\n                betlol = playerBet[add].amountBet;\r\n                winners[j].transfer((betlol*(10000+(totalLoser*10000/totalWinner)))/10000);\r\n            }\r\n        }\r\n    }\r\n\r\n    function getPlayers() public view returns (address payable[] memory playersArray) {\r\n        return players;\r\n    }\r\n\r\n    function getTotalBetValue() public view returns (uint256 betValue) {\r\n        return homeTeamamount + awayTeamamount;\r\n    }\r\n\r\n    function getPlayerBet(address playerAddress) public view returns (uint256 betValue) {\r\n        return playerBet[playerAddress].amountBet;\r\n    }\r\n}\r\n",
  "sourcePath": "C:/Users/Marien/Documents/GitHub/projectD/project-d/contracts/RouletteContract.sol",
  "compiler": {
    "name": "solc",
    "version": "0.5.7+commit.6da8b019.Emscripten.clang"
  },
  "schemaVersion": "3.0.6",
  "updatedAt": "2019-06-06T13:04:52.611Z",
  "devdoc": {
    "methods": {}
  },
  "userdoc": {
    "methods": {}
  }
}